{
  "contractName": "ethereumAds",
  "abi": [
    {
      "inputs": [],
      "stateMutability": "nonpayable",
      "type": "constructor"
    },
    {
      "inputs": [
        {
          "internalType": "uint256",
          "name": "",
          "type": "uint256"
        }
      ],
      "name": "adBoxes",
      "outputs": [
        {
          "internalType": "address",
          "name": "owner",
          "type": "address"
        },
        {
          "internalType": "string",
          "name": "url",
          "type": "string"
        },
        {
          "internalType": "bool",
          "name": "owned",
          "type": "bool"
        },
        {
          "internalType": "bool",
          "name": "rented",
          "type": "bool"
        },
        {
          "internalType": "uint256",
          "name": "price",
          "type": "uint256"
        }
      ],
      "stateMutability": "view",
      "type": "function"
    },
    {
      "inputs": [
        {
          "internalType": "uint256",
          "name": "_box_index",
          "type": "uint256"
        }
      ],
      "name": "buyOwnedBox",
      "outputs": [],
      "stateMutability": "payable",
      "type": "function"
    },
    {
      "inputs": [
        {
          "internalType": "uint256",
          "name": "_box_index",
          "type": "uint256"
        }
      ],
      "name": "buyEmptyBox",
      "outputs": [],
      "stateMutability": "payable",
      "type": "function"
    },
    {
      "inputs": [
        {
          "internalType": "uint256",
          "name": "_box_index",
          "type": "uint256"
        },
        {
          "internalType": "uint256",
          "name": "_price",
          "type": "uint256"
        }
      ],
      "name": "setPrice",
      "outputs": [],
      "stateMutability": "nonpayable",
      "type": "function"
    },
    {
      "inputs": [
        {
          "internalType": "uint256",
          "name": "_box_index",
          "type": "uint256"
        },
        {
          "internalType": "string",
          "name": "_url",
          "type": "string"
        }
      ],
      "name": "setUrl",
      "outputs": [],
      "stateMutability": "nonpayable",
      "type": "function"
    },
    {
      "inputs": [
        {
          "internalType": "uint256",
          "name": "_box_index",
          "type": "uint256"
        }
      ],
      "name": "getPrice",
      "outputs": [
        {
          "internalType": "uint256",
          "name": "",
          "type": "uint256"
        }
      ],
      "stateMutability": "view",
      "type": "function"
    },
    {
      "inputs": [
        {
          "internalType": "uint256",
          "name": "_box_index",
          "type": "uint256"
        }
      ],
      "name": "getUrl",
      "outputs": [
        {
          "internalType": "string",
          "name": "",
          "type": "string"
        }
      ],
      "stateMutability": "view",
      "type": "function"
    },
    {
      "inputs": [
        {
          "internalType": "uint256",
          "name": "_box_index",
          "type": "uint256"
        }
      ],
      "name": "getOwner",
      "outputs": [
        {
          "internalType": "address",
          "name": "",
          "type": "address"
        }
      ],
      "stateMutability": "view",
      "type": "function"
    },
    {
      "inputs": [
        {
          "internalType": "uint256",
          "name": "_box_index",
          "type": "uint256"
        }
      ],
      "name": "isBoxOwned",
      "outputs": [
        {
          "internalType": "bool",
          "name": "",
          "type": "bool"
        }
      ],
      "stateMutability": "view",
      "type": "function"
    },
    {
      "inputs": [],
      "name": "getBoxCount",
      "outputs": [
        {
          "internalType": "uint256",
          "name": "",
          "type": "uint256"
        }
      ],
      "stateMutability": "view",
      "type": "function"
    }
  ],
  "bytecode": "0x6080604052606460015568056bc75e2d631000006002556040518060a001604052806066815260200162001038606691396003908051906020019062000047929190620000b9565b50600a6004553480156200005a57600080fd5b5060005b600454811015620000b25760036000808381526020019081526020016000206001019080546200008e906200020b565b6200009b9291906200014a565b508080620000a99062000241565b9150506200005e565b50620002ed565b828054620000c7906200020b565b90600052602060002090601f016020900481019282620000eb576000855562000137565b82601f106200010657805160ff191683800117855562000137565b8280016001018555821562000137579182015b828111156200013657825182559160200191906001019062000119565b5b509050620001469190620001e2565b5090565b82805462000158906200020b565b90600052602060002090601f0160209004810192826200017c5760008555620001cf565b82601f106200018f5780548555620001cf565b82800160010185558215620001cf57600052602060002091601f016020900482015b82811115620001ce578254825591600101919060010190620001b1565b5b509050620001de9190620001e2565b5090565b5b80821115620001fd576000816000905550600101620001e3565b5090565b6000819050919050565b600060028204905060018216806200022457607f821691505b602082108114156200023b576200023a620002be565b5b50919050565b60006200024e8262000201565b91507fffffffffffffffffffffffffffffffffffffffffffffffffffffffffffffffff8214156200028457620002836200028f565b5b600182019050919050565b7f4e487b7100000000000000000000000000000000000000000000000000000000600052601160045260246000fd5b7f4e487b7100000000000000000000000000000000000000000000000000000000600052602260045260246000fd5b610d3b80620002fd6000396000f3fe6080604052600436106100915760003560e01c806393f705ee1161005957806393f705ee14610189578063aef95098146101b4578063c41a360a146101dd578063e75722301461021a578063f7d975771461025757610091565b80631dc8ca7f1461009657806342ac35f9146100b25780634f88b70f146100f357806383ef36391461013057806385604d891461014c575b600080fd5b6100b060048036038101906100ab919061095a565b610280565b005b3480156100be57600080fd5b506100d960048036038101906100d4919061095a565b610387565b6040516100ea959493929190610a94565b60405180910390f35b3480156100ff57600080fd5b5061011a6004803603810190610115919061095a565b61047f565b6040516101279190610aee565b60405180910390f35b61014a6004803603810190610145919061095a565b6104ab565b005b34801561015857600080fd5b50610173600480360381019061016e919061095a565b610605565b6040516101809190610b09565b60405180910390f35b34801561019557600080fd5b5061019e6106ac565b6040516101ab9190610b2b565b60405180910390f35b3480156101c057600080fd5b506101db60048036038101906101d69190610983565b6106b6565b005b3480156101e957600080fd5b5061020460048036038101906101ff919061095a565b610751565b6040516102119190610a79565b60405180910390f35b34801561022657600080fd5b50610241600480360381019061023c919061095a565b610790565b60405161024e9190610b2b565b60405180910390f35b34801561026357600080fd5b5061027e600480360381019061027991906109d7565b6107af565b005b6002546000808381526020019081526020016000206003015414156102a457600080fd5b6000151560008083815260200190815260200160002060020160009054906101000a900460ff161515146102d757600080fd5b6001543410156102e657600080fd5b3360008083815260200190815260200160002060000160006101000a81548173ffffffffffffffffffffffffffffffffffffffff021916908373ffffffffffffffffffffffffffffffffffffffff160217905550600160008083815260200190815260200160002060020160006101000a81548160ff0219169083151502179055506002546000808381526020019081526020016000206003018190555050565b60006020528060005260406000206000915090508060000160009054906101000a900473ffffffffffffffffffffffffffffffffffffffff16908060010180546103d090610c4d565b80601f01602080910402602001604051908101604052809291908181526020018280546103fc90610c4d565b80156104495780601f1061041e57610100808354040283529160200191610449565b820191906000526020600020905b81548152906001019060200180831161042c57829003601f168201915b5050505050908060020160009054906101000a900460ff16908060020160019054906101000a900460ff16908060030154905085565b600080600083815260200190815260200160002060020160009054906101000a900460ff169050919050565b6002546000808381526020019081526020016000206003015414156104cf57600080fd5b6001151560008083815260200190815260200160002060020160009054906101000a900460ff1615151461050257600080fd5b60008082815260200190815260200160002060000160009054906101000a900473ffffffffffffffffffffffffffffffffffffffff1673ffffffffffffffffffffffffffffffffffffffff163373ffffffffffffffffffffffffffffffffffffffff16141561057057600080fd5b6000808281526020019081526020016000206003015434101561059257600080fd5b3360008083815260200190815260200160002060000160006101000a81548173ffffffffffffffffffffffffffffffffffffffff021916908373ffffffffffffffffffffffffffffffffffffffff1602179055506002546000808381526020019081526020016000206003018190555050565b6060600080838152602001908152602001600020600101805461062790610c4d565b80601f016020809104026020016040519081016040528092919081815260200182805461065390610c4d565b80156106a05780601f10610675576101008083540402835291602001916106a0565b820191906000526020600020905b81548152906001019060200180831161068357829003601f168201915b50505050509050919050565b6000600454905090565b60008083815260200190815260200160002060000160009054906101000a900473ffffffffffffffffffffffffffffffffffffffff1673ffffffffffffffffffffffffffffffffffffffff163373ffffffffffffffffffffffffffffffffffffffff161461072357600080fd5b80600080848152602001908152602001600020600101908051906020019061074c92919061083a565b505050565b600080600083815260200190815260200160002060000160009054906101000a900473ffffffffffffffffffffffffffffffffffffffff169050919050565b6000806000838152602001908152602001600020600301549050919050565b60008083815260200190815260200160002060000160009054906101000a900473ffffffffffffffffffffffffffffffffffffffff1673ffffffffffffffffffffffffffffffffffffffff163373ffffffffffffffffffffffffffffffffffffffff161461081c57600080fd5b80600080848152602001908152602001600020600301819055505050565b82805461084690610c4d565b90600052602060002090601f01602090048101928261086857600085556108af565b82601f1061088157805160ff19168380011785556108af565b828001600101855582156108af579182015b828111156108ae578251825591602001919060010190610893565b5b5090506108bc91906108c0565b5090565b5b808211156108d95760008160009055506001016108c1565b5090565b60006108f06108eb84610b77565b610b46565b90508281526020810184848401111561090857600080fd5b610913848285610c0b565b509392505050565b600082601f83011261092c57600080fd5b813561093c8482602086016108dd565b91505092915050565b60008135905061095481610cee565b92915050565b60006020828403121561096c57600080fd5b600061097a84828501610945565b91505092915050565b6000806040838503121561099657600080fd5b60006109a485828601610945565b925050602083013567ffffffffffffffff8111156109c157600080fd5b6109cd8582860161091b565b9150509250929050565b600080604083850312156109ea57600080fd5b60006109f885828601610945565b9250506020610a0985828601610945565b9150509250929050565b610a1c81610bc3565b82525050565b610a2b81610bd5565b82525050565b6000610a3c82610ba7565b610a468185610bb2565b9350610a56818560208601610c1a565b610a5f81610cdd565b840191505092915050565b610a7381610c01565b82525050565b6000602082019050610a8e6000830184610a13565b92915050565b600060a082019050610aa96000830188610a13565b8181036020830152610abb8187610a31565b9050610aca6040830186610a22565b610ad76060830185610a22565b610ae46080830184610a6a565b9695505050505050565b6000602082019050610b036000830184610a22565b92915050565b60006020820190508181036000830152610b238184610a31565b905092915050565b6000602082019050610b406000830184610a6a565b92915050565b6000604051905081810181811067ffffffffffffffff82111715610b6d57610b6c610cae565b5b8060405250919050565b600067ffffffffffffffff821115610b9257610b91610cae565b5b601f19601f8301169050602081019050919050565b600081519050919050565b600082825260208201905092915050565b6000610bce82610be1565b9050919050565b60008115159050919050565b600073ffffffffffffffffffffffffffffffffffffffff82169050919050565b6000819050919050565b82818337600083830152505050565b60005b83811015610c38578082015181840152602081019050610c1d565b83811115610c47576000848401525b50505050565b60006002820490506001821680610c6557607f821691505b60208210811415610c7957610c78610c7f565b5b50919050565b7f4e487b7100000000000000000000000000000000000000000000000000000000600052602260045260246000fd5b7f4e487b7100000000000000000000000000000000000000000000000000000000600052604160045260246000fd5b6000601f19601f8301169050919050565b610cf781610c01565b8114610d0257600080fd5b5056fea2646970667358221220b8fa9fc0e5e370e12d0698c4173a070c85bde009354f97377f10955b478b61b164736f6c6343000800003368747470733a2f2f70726576696577732e31323372662e636f6d2f696d616765732f616c657877686974652f616c65787768697465313231312f616c657877686974653132313130303535392f31363232353739382d6275792d6e6f772d69636f6e2e6a7067",
  "immutableReferences": {},
  "source": "pragma solidity ^0.8.0;\n\ncontract ethereumAds {\n    mapping(uint256 => adBox) public adBoxes;\n    uint256 initial_price = 100 wei;\n    uint256 MAX_PRICE = 100 ether;\n    string initial_url =\n        \"https://previews.123rf.com/images/alexwhite/alexwhite1211/alexwhite121100559/16225798-buy-now-icon.jpg\";\n    uint256 box_count = 10;\n\n    struct adBox {\n        address owner;\n        string url;\n        bool owned;\n        bool rented;\n        uint256 price;\n    }\n\n    constructor() {\n        for (uint256 i = 0; i < box_count; i++) {\n            adBoxes[i].url = initial_url;\n        }\n    }\n\n    function buyOwnedBox(uint256 _box_index) public payable {\n        // Prevents anyone from buying until owner decides a price\n        require(adBoxes[_box_index].price != MAX_PRICE);\n        require(adBoxes[_box_index].owned == true);\n        require(msg.sender != adBoxes[_box_index].owner);\n        require(msg.value >= adBoxes[_box_index].price);\n\n        adBoxes[_box_index].owner = msg.sender;\n\n        adBoxes[_box_index].price = MAX_PRICE;\n    }\n\n    function buyEmptyBox(uint256 _box_index) public payable {\n        require(adBoxes[_box_index].price != MAX_PRICE);\n        require(adBoxes[_box_index].owned == false);\n        require(msg.value >= initial_price);\n\n        adBoxes[_box_index].owner = msg.sender;\n        adBoxes[_box_index].owned = true;\n\n        adBoxes[_box_index].price = MAX_PRICE;\n    }\n\n    function setPrice(uint256 _box_index, uint256 _price) public {\n        require(msg.sender == adBoxes[_box_index].owner);\n\n        adBoxes[_box_index].price = _price;\n    }\n\n    function setUrl(uint256 _box_index, string memory _url) public {\n        require(msg.sender == adBoxes[_box_index].owner);\n        adBoxes[_box_index].url = _url;\n    }\n\n    function getPrice(uint256 _box_index) public view returns (uint256) {\n        return adBoxes[_box_index].price;\n    }\n\n    function getUrl(uint256 _box_index) public view returns (string memory) {\n        return adBoxes[_box_index].url;\n    }\n\n    function getOwner(uint256 _box_index) public view returns (address) {\n        return adBoxes[_box_index].owner;\n    }\n\n    function isBoxOwned(uint256 _box_index) public view returns (bool) {\n        return adBoxes[_box_index].owned;\n    }\n    \n    function getBoxCount() public view returns (uint256){\n        return box_count;   \n    }\n}\n",
  "sourcePath": "/home/mertmalaz/Desktop/atomic-swap_solidity (copy)/atomic-swap-solidity/src/contracts/ad_contract.sol",
  "compiler": {
    "name": "solc",
    "version": "0.8.0+commit.c7dfd78e.Emscripten.clang"
  },
  "schemaVersion": "3.4.1",
  "updatedAt": "2021-05-23T22:37:59.528Z",
  "devdoc": {
    "kind": "dev",
    "methods": {},
    "version": 1
  },
  "userdoc": {
    "kind": "user",
    "methods": {},
    "version": 1
  }
}