{
  "contractName": "ethereumAds",
  "abi": [
    {
      "inputs": [],
      "stateMutability": "nonpayable",
      "type": "constructor"
    },
    {
      "anonymous": false,
      "inputs": [
        {
          "indexed": true,
          "internalType": "address",
          "name": "_buyer",
          "type": "address"
        },
        {
          "indexed": false,
          "internalType": "uint256",
          "name": "_price",
          "type": "uint256"
        }
      ],
      "name": "boxBought",
      "type": "event"
    },
    {
      "anonymous": false,
      "inputs": [
        {
          "indexed": true,
          "internalType": "address",
          "name": "_renter",
          "type": "address"
        },
        {
          "indexed": false,
          "internalType": "uint256",
          "name": "_price",
          "type": "uint256"
        }
      ],
      "name": "boxCountChanged",
      "type": "event"
    },
    {
      "anonymous": false,
      "inputs": [
        {
          "indexed": true,
          "internalType": "address",
          "name": "_renter",
          "type": "address"
        },
        {
          "indexed": false,
          "internalType": "uint256",
          "name": "_price",
          "type": "uint256"
        }
      ],
      "name": "boxRented",
      "type": "event"
    },
    {
      "anonymous": false,
      "inputs": [
        {
          "indexed": true,
          "internalType": "address",
          "name": "_renter",
          "type": "address"
        },
        {
          "indexed": false,
          "internalType": "uint256",
          "name": "_price",
          "type": "uint256"
        }
      ],
      "name": "initialPriceChanged",
      "type": "event"
    },
    {
      "anonymous": false,
      "inputs": [
        {
          "indexed": true,
          "internalType": "address",
          "name": "_renter",
          "type": "address"
        },
        {
          "indexed": false,
          "internalType": "string",
          "name": "_price",
          "type": "string"
        }
      ],
      "name": "initialUrlChanged",
      "type": "event"
    },
    {
      "inputs": [
        {
          "internalType": "uint256",
          "name": "",
          "type": "uint256"
        }
      ],
      "name": "adBoxes",
      "outputs": [
        {
          "internalType": "address",
          "name": "owner",
          "type": "address"
        },
        {
          "internalType": "address",
          "name": "renter",
          "type": "address"
        },
        {
          "internalType": "string",
          "name": "img_url",
          "type": "string"
        },
        {
          "internalType": "string",
          "name": "ad_url",
          "type": "string"
        },
        {
          "internalType": "uint256",
          "name": "buy_price",
          "type": "uint256"
        },
        {
          "internalType": "bool",
          "name": "rented",
          "type": "bool"
        },
        {
          "internalType": "uint256",
          "name": "rent_start",
          "type": "uint256"
        },
        {
          "internalType": "uint256",
          "name": "rent_period",
          "type": "uint256"
        },
        {
          "internalType": "uint256",
          "name": "rent_price_daily",
          "type": "uint256"
        }
      ],
      "stateMutability": "view",
      "type": "function"
    },
    {
      "inputs": [
        {
          "internalType": "uint256",
          "name": "_box_count",
          "type": "uint256"
        }
      ],
      "name": "setBoxCount",
      "outputs": [],
      "stateMutability": "nonpayable",
      "type": "function"
    },
    {
      "inputs": [
        {
          "internalType": "string",
          "name": "_initial_url",
          "type": "string"
        }
      ],
      "name": "setInitialUrl",
      "outputs": [],
      "stateMutability": "nonpayable",
      "type": "function"
    },
    {
      "inputs": [
        {
          "internalType": "uint256",
          "name": "_initial_price",
          "type": "uint256"
        }
      ],
      "name": "setInitialPrice",
      "outputs": [],
      "stateMutability": "nonpayable",
      "type": "function"
    },
    {
      "inputs": [
        {
          "internalType": "address",
          "name": "_new_owner",
          "type": "address"
        }
      ],
      "name": "setContractOwner",
      "outputs": [],
      "stateMutability": "nonpayable",
      "type": "function"
    },
    {
      "inputs": [
        {
          "internalType": "uint256",
          "name": "_box_index",
          "type": "uint256"
        }
      ],
      "name": "buyOwnedBox",
      "outputs": [],
      "stateMutability": "payable",
      "type": "function"
    },
    {
      "inputs": [
        {
          "internalType": "uint256",
          "name": "_box_index",
          "type": "uint256"
        }
      ],
      "name": "buyEmptyBox",
      "outputs": [],
      "stateMutability": "payable",
      "type": "function"
    },
    {
      "inputs": [
        {
          "internalType": "uint256",
          "name": "_box_index",
          "type": "uint256"
        },
        {
          "internalType": "uint256",
          "name": "_many_days",
          "type": "uint256"
        }
      ],
      "name": "rentBox",
      "outputs": [],
      "stateMutability": "payable",
      "type": "function"
    },
    {
      "inputs": [
        {
          "internalType": "uint256",
          "name": "_box_index",
          "type": "uint256"
        }
      ],
      "name": "retrieveRentedBox",
      "outputs": [],
      "stateMutability": "nonpayable",
      "type": "function"
    },
    {
      "inputs": [
        {
          "internalType": "uint256",
          "name": "_box_index",
          "type": "uint256"
        },
        {
          "internalType": "uint256",
          "name": "_price",
          "type": "uint256"
        }
      ],
      "name": "setBuyPrice",
      "outputs": [],
      "stateMutability": "nonpayable",
      "type": "function"
    },
    {
      "inputs": [
        {
          "internalType": "uint256",
          "name": "_box_index",
          "type": "uint256"
        },
        {
          "internalType": "uint256",
          "name": "_price",
          "type": "uint256"
        }
      ],
      "name": "setRentPrice",
      "outputs": [],
      "stateMutability": "nonpayable",
      "type": "function"
    },
    {
      "inputs": [
        {
          "internalType": "uint256",
          "name": "_box_index",
          "type": "uint256"
        },
        {
          "internalType": "string",
          "name": "_url",
          "type": "string"
        }
      ],
      "name": "setImgUrl",
      "outputs": [],
      "stateMutability": "nonpayable",
      "type": "function"
    },
    {
      "inputs": [
        {
          "internalType": "uint256",
          "name": "_box_index",
          "type": "uint256"
        },
        {
          "internalType": "string",
          "name": "_url",
          "type": "string"
        }
      ],
      "name": "setAdUrl",
      "outputs": [],
      "stateMutability": "nonpayable",
      "type": "function"
    },
    {
      "inputs": [
        {
          "internalType": "uint256",
          "name": "_box_index",
          "type": "uint256"
        }
      ],
      "name": "getBuyPrice",
      "outputs": [
        {
          "internalType": "uint256",
          "name": "",
          "type": "uint256"
        }
      ],
      "stateMutability": "view",
      "type": "function"
    },
    {
      "inputs": [
        {
          "internalType": "uint256",
          "name": "_box_index",
          "type": "uint256"
        }
      ],
      "name": "getRentPrice",
      "outputs": [
        {
          "internalType": "uint256",
          "name": "",
          "type": "uint256"
        }
      ],
      "stateMutability": "view",
      "type": "function"
    },
    {
      "inputs": [
        {
          "internalType": "uint256",
          "name": "_box_index",
          "type": "uint256"
        }
      ],
      "name": "getImgUrl",
      "outputs": [
        {
          "internalType": "string",
          "name": "",
          "type": "string"
        }
      ],
      "stateMutability": "view",
      "type": "function"
    },
    {
      "inputs": [
        {
          "internalType": "uint256",
          "name": "_box_index",
          "type": "uint256"
        }
      ],
      "name": "getAdUrl",
      "outputs": [
        {
          "internalType": "string",
          "name": "",
          "type": "string"
        }
      ],
      "stateMutability": "view",
      "type": "function"
    },
    {
      "inputs": [
        {
          "internalType": "uint256",
          "name": "_box_index",
          "type": "uint256"
        }
      ],
      "name": "getOwner",
      "outputs": [
        {
          "internalType": "address",
          "name": "",
          "type": "address"
        }
      ],
      "stateMutability": "view",
      "type": "function"
    },
    {
      "inputs": [],
      "name": "getBoxCount",
      "outputs": [
        {
          "internalType": "uint256",
          "name": "",
          "type": "uint256"
        }
      ],
      "stateMutability": "view",
      "type": "function"
    },
    {
      "inputs": [],
      "name": "getInitialUrl",
      "outputs": [
        {
          "internalType": "string",
          "name": "",
          "type": "string"
        }
      ],
      "stateMutability": "view",
      "type": "function"
    },
    {
      "inputs": [
        {
          "internalType": "uint256",
          "name": "_box_index",
          "type": "uint256"
        }
      ],
      "name": "isBoxOwned",
      "outputs": [
        {
          "internalType": "bool",
          "name": "",
          "type": "bool"
        }
      ],
      "stateMutability": "view",
      "type": "function"
    }
  ],
  "bytecode": "0x608060405260646001556040518060a0016040528060668152602001620030f960669139600290805190602001906200003a92919062000095565b5060646003553480156200004d57600080fd5b5033600460006101000a81548173ffffffffffffffffffffffffffffffffffffffff021916908373ffffffffffffffffffffffffffffffffffffffff160217905550620001aa565b828054620000a39062000145565b90600052602060002090601f016020900481019282620000c7576000855562000113565b82601f10620000e257805160ff191683800117855562000113565b8280016001018555821562000113579182015b8281111562000112578251825591602001919060010190620000f5565b5b50905062000122919062000126565b5090565b5b808211156200014157600081600090555060010162000127565b5090565b600060028204905060018216806200015e57607f821691505b602082108114156200017557620001746200017b565b5b50919050565b7f4e487b7100000000000000000000000000000000000000000000000000000000600052602260045260246000fd5b612f3f80620001ba6000396000f3fe60806040526004361061012a5760003560e01c806399fbf3a2116100ab578063c084d5421161006f578063c084d542146103ec578063c41a360a14610429578063e24ee26714610466578063e93f3f8d1461048f578063f5403730146104b8578063fc0af892146104e15761012a565b806399fbf3a21461030b5780639f4ba0ee14610334578063a34d42b81461035d578063aa617f2514610386578063af052c55146103c35761012a565b8063483aa04a116100f2578063483aa04a1461021f5780634f88b70f1461024a57806365de0f561461028757806383ef3639146102c457806393f705ee146102e05761012a565b806308d4db141461012f578063142648c41461016c5780631dc8ca7f1461019557806329658ae2146101b157806342ac35f9146101da575b600080fd5b34801561013b57600080fd5b5061015660048036038101906101519190611e2f565b6104fd565b6040516101639190612bd9565b60405180910390f35b34801561017857600080fd5b50610193600480360381019061018e9190611e2f565b61051c565b005b6101af60048036038101906101aa9190611e2f565b610604565b005b3480156101bd57600080fd5b506101d860048036038101906101d39190611dee565b610816565b005b3480156101e657600080fd5b5061020160048036038101906101fc9190611e2f565b61090e565b60405161021699989796959493929190612821565b60405180910390f35b34801561022b57600080fd5b50610234610ab9565b60405161024191906128d7565b60405180910390f35b34801561025657600080fd5b50610271600480360381019061026c9190611e2f565b610b4b565b60405161027e91906128bc565b60405180910390f35b34801561029357600080fd5b506102ae60048036038101906102a99190611e2f565b610bc6565b6040516102bb9190612bd9565b60405180910390f35b6102de60048036038101906102d99190611e2f565b610be5565b005b3480156102ec57600080fd5b506102f5610f7e565b6040516103029190612bd9565b60405180910390f35b34801561031757600080fd5b50610332600480360381019061032d9190611eac565b610f88565b005b34801561034057600080fd5b5061035b60048036038101906103569190611e2f565b611049565b005b34801561036957600080fd5b50610384600480360381019061037f9190611dc5565b611131565b005b34801561039257600080fd5b506103ad60048036038101906103a89190611e2f565b61123f565b6040516103ba91906128d7565b60405180910390f35b3480156103cf57600080fd5b506103ea60048036038101906103e59190611e58565b6112e6565b005b3480156103f857600080fd5b50610413600480360381019061040e9190611e2f565b611488565b60405161042091906128d7565b60405180910390f35b34801561043557600080fd5b50610450600480360381019061044b9190611e2f565b61152f565b60405161045d9190612806565b60405180910390f35b34801561047257600080fd5b5061048d60048036038101906104889190611e2f565b61156e565b005b34801561049b57600080fd5b506104b660048036038101906104b19190611eac565b61177e565b005b3480156104c457600080fd5b506104df60048036038101906104da9190611e58565b61183f565b005b6104fb60048036038101906104f69190611eac565b6119e1565b005b6000806000838152602001908152602001600020600401549050919050565b600460009054906101000a900473ffffffffffffffffffffffffffffffffffffffff1673ffffffffffffffffffffffffffffffffffffffff163373ffffffffffffffffffffffffffffffffffffffff16146105ac576040517f08c379a00000000000000000000000000000000000000000000000000000000081526004016105a390612959565b60405180910390fd5b806003819055503373ffffffffffffffffffffffffffffffffffffffff167f03ac768a36563c670240e5f4da66857d15789ee312aeb7e0acf4a3e211982dc8826040516105f99190612bd9565b60405180910390a250565b600154341015610649576040517f08c379a000000000000000000000000000000000000000000000000000000000815260040161064090612b99565b60405180910390fd5b600073ffffffffffffffffffffffffffffffffffffffff1660008083815260200190815260200160002060000160009054906101000a900473ffffffffffffffffffffffffffffffffffffffff1673ffffffffffffffffffffffffffffffffffffffff16146106ed576040517f08c379a00000000000000000000000000000000000000000000000000000000081526004016106e490612a79565b60405180910390fd5b3360008083815260200190815260200160002060000160006101000a81548173ffffffffffffffffffffffffffffffffffffffff021916908373ffffffffffffffffffffffffffffffffffffffff1602179055506000806000838152602001908152602001600020600401819055503373ffffffffffffffffffffffffffffffffffffffff167f35e0aac1ca4984fb63f1566a672cdd6f47c9a0a5701fd22afe19eb0ddcf15873346040516107a29190612bd9565b60405180910390a2600460009054906101000a900473ffffffffffffffffffffffffffffffffffffffff1673ffffffffffffffffffffffffffffffffffffffff166108fc349081150290604051600060405180830381858888f19350505050158015610812573d6000803e3d6000fd5b5050565b600460009054906101000a900473ffffffffffffffffffffffffffffffffffffffff1673ffffffffffffffffffffffffffffffffffffffff163373ffffffffffffffffffffffffffffffffffffffff16146108a6576040517f08c379a000000000000000000000000000000000000000000000000000000000815260040161089d90612b59565b60405180910390fd5b80600290805190602001906108bc929190611c90565b503373ffffffffffffffffffffffffffffffffffffffff167f715b012d93f32b11b7bbc7b31b19975f4c8f4d24645552ab270bf11549ada5e18260405161090391906128d7565b60405180910390a250565b60006020528060005260406000206000915090508060000160009054906101000a900473ffffffffffffffffffffffffffffffffffffffff16908060010160009054906101000a900473ffffffffffffffffffffffffffffffffffffffff169080600201805461097d90612ddc565b80601f01602080910402602001604051908101604052809291908181526020018280546109a990612ddc565b80156109f65780601f106109cb576101008083540402835291602001916109f6565b820191906000526020600020905b8154815290600101906020018083116109d957829003601f168201915b505050505090806003018054610a0b90612ddc565b80601f0160208091040260200160405190810160405280929190818152602001828054610a3790612ddc565b8015610a845780601f10610a5957610100808354040283529160200191610a84565b820191906000526020600020905b815481529060010190602001808311610a6757829003601f168201915b5050505050908060040154908060050160009054906101000a900460ff16908060060154908060070154908060080154905089565b606060028054610ac890612ddc565b80601f0160208091040260200160405190810160405280929190818152602001828054610af490612ddc565b8015610b415780601f10610b1657610100808354040283529160200191610b41565b820191906000526020600020905b815481529060010190602001808311610b2457829003601f168201915b5050505050905090565b60008073ffffffffffffffffffffffffffffffffffffffff1660008084815260200190815260200160002060000160009054906101000a900473ffffffffffffffffffffffffffffffffffffffff1673ffffffffffffffffffffffffffffffffffffffff1614610bbc576001610bbf565b60005b9050919050565b6000806000838152602001908152602001600020600801549050919050565b6000806000838152602001908152602001600020600401541415610c3e576040517f08c379a0000000000000000000000000000000000000000000000000000000008152600401610c35906129d9565b60405180910390fd5b60008082815260200190815260200160002060000160009054906101000a900473ffffffffffffffffffffffffffffffffffffffff1673ffffffffffffffffffffffffffffffffffffffff163373ffffffffffffffffffffffffffffffffffffffff161415610ce2576040517f08c379a0000000000000000000000000000000000000000000000000000000008152600401610cd990612a19565b60405180910390fd5b60008082815260200190815260200160002060040154341015610d3a576040517f08c379a0000000000000000000000000000000000000000000000000000000008152600401610d3190612bb9565b60405180910390fd5b600073ffffffffffffffffffffffffffffffffffffffff1660008083815260200190815260200160002060000160009054906101000a900473ffffffffffffffffffffffffffffffffffffffff1673ffffffffffffffffffffffffffffffffffffffff161415610ddf576040517f08c379a0000000000000000000000000000000000000000000000000000000008152600401610dd690612a99565b60405180910390fd5b60008082815260200190815260200160002060050160009054906101000a900460ff1615610e42576040517f08c379a0000000000000000000000000000000000000000000000000000000008152600401610e3990612b19565b60405180910390fd5b3360008083815260200190815260200160002060000160006101000a81548173ffffffffffffffffffffffffffffffffffffffff021916908373ffffffffffffffffffffffffffffffffffffffff1602179055506000806000838152602001908152602001600020600401819055503373ffffffffffffffffffffffffffffffffffffffff167f35e0aac1ca4984fb63f1566a672cdd6f47c9a0a5701fd22afe19eb0ddcf1587334604051610ef79190612bd9565b60405180910390a260008082815260200190815260200160002060000160009054906101000a900473ffffffffffffffffffffffffffffffffffffffff1673ffffffffffffffffffffffffffffffffffffffff166108fc349081150290604051600060405180830381858888f19350505050158015610f7a573d6000803e3d6000fd5b5050565b6000600354905090565b60008083815260200190815260200160002060000160009054906101000a900473ffffffffffffffffffffffffffffffffffffffff1673ffffffffffffffffffffffffffffffffffffffff163373ffffffffffffffffffffffffffffffffffffffff161461102b576040517f08c379a000000000000000000000000000000000000000000000000000000000815260040161102290612b39565b60405180910390fd5b80600080848152602001908152602001600020600801819055505050565b600460009054906101000a900473ffffffffffffffffffffffffffffffffffffffff1673ffffffffffffffffffffffffffffffffffffffff163373ffffffffffffffffffffffffffffffffffffffff16146110d9576040517f08c379a00000000000000000000000000000000000000000000000000000000081526004016110d090612ad9565b60405180910390fd5b806001819055503373ffffffffffffffffffffffffffffffffffffffff167f9d51f67830aae08ca491ff9e881913137813da50da9eda99055920acf34705ea826040516111269190612bd9565b60405180910390a250565b600460009054906101000a900473ffffffffffffffffffffffffffffffffffffffff1673ffffffffffffffffffffffffffffffffffffffff163373ffffffffffffffffffffffffffffffffffffffff16146111c1576040517f08c379a00000000000000000000000000000000000000000000000000000000081526004016111b890612ab9565b60405180910390fd5b600073ffffffffffffffffffffffffffffffffffffffff168173ffffffffffffffffffffffffffffffffffffffff1614156111fb57600080fd5b80600460006101000a81548173ffffffffffffffffffffffffffffffffffffffff021916908373ffffffffffffffffffffffffffffffffffffffff16021790555050565b6060600080838152602001908152602001600020600301805461126190612ddc565b80601f016020809104026020016040519081016040528092919081815260200182805461128d90612ddc565b80156112da5780601f106112af576101008083540402835291602001916112da565b820191906000526020600020905b8154815290600101906020018083116112bd57829003601f168201915b50505050509050919050565b60008083815260200190815260200160002060050160009054906101000a900460ff16156113b65760008083815260200190815260200160002060010160009054906101000a900473ffffffffffffffffffffffffffffffffffffffff1673ffffffffffffffffffffffffffffffffffffffff163373ffffffffffffffffffffffffffffffffffffffff16146113b1576040517f08c379a00000000000000000000000000000000000000000000000000000000081526004016113a890612b79565b60405180910390fd5b61145a565b60008083815260200190815260200160002060000160009054906101000a900473ffffffffffffffffffffffffffffffffffffffff1673ffffffffffffffffffffffffffffffffffffffff163373ffffffffffffffffffffffffffffffffffffffff1614611459576040517f08c379a0000000000000000000000000000000000000000000000000000000008152600401611450906129b9565b60405180910390fd5b5b806000808481526020019081526020016000206002019080519060200190611483929190611c90565b505050565b606060008083815260200190815260200160002060020180546114aa90612ddc565b80601f01602080910402602001604051908101604052809291908181526020018280546114d690612ddc565b80156115235780601f106114f857610100808354040283529160200191611523565b820191906000526020600020905b81548152906001019060200180831161150657829003601f168201915b50505050509050919050565b600080600083815260200190815260200160002060000160009054906101000a900473ffffffffffffffffffffffffffffffffffffffff169050919050565b60008082815260200190815260200160002060000160009054906101000a900473ffffffffffffffffffffffffffffffffffffffff1673ffffffffffffffffffffffffffffffffffffffff163373ffffffffffffffffffffffffffffffffffffffff161015611612576040517f08c379a0000000000000000000000000000000000000000000000000000000008152600401611609906129f9565b60405180910390fd5b60008082815260200190815260200160002060050160009054906101000a900460ff16611674576040517f08c379a000000000000000000000000000000000000000000000000000000000815260040161166b906128f9565b60405180910390fd5b436004600080848152602001908152602001600020600701546116979190612cc7565b600080848152602001908152602001600020600601546116b79190612c71565b10156116f8576040517f08c379a00000000000000000000000000000000000000000000000000000000081526004016116ef90612919565b60405180910390fd5b600080600083815260200190815260200160002060050160006101000a81548160ff021916908315150217905550600080600083815260200190815260200160002060010160006101000a81548173ffffffffffffffffffffffffffffffffffffffff021916908373ffffffffffffffffffffffffffffffffffffffff16021790555050565b60008083815260200190815260200160002060000160009054906101000a900473ffffffffffffffffffffffffffffffffffffffff1673ffffffffffffffffffffffffffffffffffffffff163373ffffffffffffffffffffffffffffffffffffffff1614611821576040517f08c379a000000000000000000000000000000000000000000000000000000000815260040161181890612af9565b60405180910390fd5b80600080848152602001908152602001600020600401819055505050565b60008083815260200190815260200160002060050160009054906101000a900460ff161561190f5760008083815260200190815260200160002060010160009054906101000a900473ffffffffffffffffffffffffffffffffffffffff1673ffffffffffffffffffffffffffffffffffffffff163373ffffffffffffffffffffffffffffffffffffffff161461190a576040517f08c379a000000000000000000000000000000000000000000000000000000000815260040161190190612a59565b60405180910390fd5b6119b3565b60008083815260200190815260200160002060000160009054906101000a900473ffffffffffffffffffffffffffffffffffffffff1673ffffffffffffffffffffffffffffffffffffffff163373ffffffffffffffffffffffffffffffffffffffff16146119b2576040517f08c379a00000000000000000000000000000000000000000000000000000000081526004016119a990612979565b60405180910390fd5b5b8060008084815260200190815260200160002060030190805190602001906119dc929190611c90565b505050565b8060008084815260200190815260200160002060080154611a029190612cf8565b341015611a44576040517f08c379a0000000000000000000000000000000000000000000000000000000008152600401611a3b90612a39565b60405180910390fd5b60008083815260200190815260200160002060050160009054906101000a900460ff1615611aa7576040517f08c379a0000000000000000000000000000000000000000000000000000000008152600401611a9e90612939565b60405180910390fd5b6000806000848152602001908152602001600020600801541415611b00576040517f08c379a0000000000000000000000000000000000000000000000000000000008152600401611af790612999565b60405180910390fd5b4360008084815260200190815260200160002060060181905550603c81611b279190612cf8565b60008084815260200190815260200160002060070181905550600160008084815260200190815260200160002060050160006101000a81548160ff0219169083151502179055503360008084815260200190815260200160002060010160006101000a81548173ffffffffffffffffffffffffffffffffffffffff021916908373ffffffffffffffffffffffffffffffffffffffff1602179055503373ffffffffffffffffffffffffffffffffffffffff167f777ae211b6f87d915263895d61dffb46b153f1b358f646ee5e41701b56b7069634604051611c089190612bd9565b60405180910390a260008083815260200190815260200160002060000160009054906101000a900473ffffffffffffffffffffffffffffffffffffffff1673ffffffffffffffffffffffffffffffffffffffff166108fc349081150290604051600060405180830381858888f19350505050158015611c8b573d6000803e3d6000fd5b505050565b828054611c9c90612ddc565b90600052602060002090601f016020900481019282611cbe5760008555611d05565b82601f10611cd757805160ff1916838001178555611d05565b82800160010185558215611d05579182015b82811115611d04578251825591602001919060010190611ce9565b5b509050611d129190611d16565b5090565b5b80821115611d2f576000816000905550600101611d17565b5090565b6000611d46611d4184612c25565b612bf4565b905082815260208101848484011115611d5e57600080fd5b611d69848285612d9a565b509392505050565b600081359050611d8081612edb565b92915050565b600082601f830112611d9757600080fd5b8135611da7848260208601611d33565b91505092915050565b600081359050611dbf81612ef2565b92915050565b600060208284031215611dd757600080fd5b6000611de584828501611d71565b91505092915050565b600060208284031215611e0057600080fd5b600082013567ffffffffffffffff811115611e1a57600080fd5b611e2684828501611d86565b91505092915050565b600060208284031215611e4157600080fd5b6000611e4f84828501611db0565b91505092915050565b60008060408385031215611e6b57600080fd5b6000611e7985828601611db0565b925050602083013567ffffffffffffffff811115611e9657600080fd5b611ea285828601611d86565b9150509250929050565b60008060408385031215611ebf57600080fd5b6000611ecd85828601611db0565b9250506020611ede85828601611db0565b9150509250929050565b611ef181612d52565b82525050565b611f0081612d64565b82525050565b6000611f1182612c55565b611f1b8185612c60565b9350611f2b818560208601612da9565b611f3481612eca565b840191505092915050565b6000611f4c602783612c60565b91507f54686520626f78206d7573742062652072656e74656420746f2062652072657460008301527f7269657665642e000000000000000000000000000000000000000000000000006020830152604082019050919050565b6000611fb2601b83612c60565b91507f52656e7420706572696f64206469646e277420656e64207965742e00000000006000830152602082019050919050565b6000611ff2601b83612c60565b91507f54686520626f7820697320616c7265616479206f6e2072656e742e00000000006000830152602082019050919050565b6000612032603883612c60565b91507f4f6e6c7920746865206f776e6572206f66207468697320636f6e74726163742060008301527f63616e207570646174652074686520626f7820636f756e7400000000000000006020830152604082019050919050565b6000612098603283612c60565b91507f4f6e6c7920746865206f776e6572206f662074686520616420626f782063616e60008301527f206368616e6765207468652041642055524c00000000000000000000000000006020830152604082019050919050565b60006120fe601883612c60565b91507f54686520626f78206973206e6f7420666f722072656e742e00000000000000006000830152602082019050919050565b600061213e603383612c60565b91507f4f6e6c7920746865206f776e6572206f662074686520616420626f782063616e60008301527f206368616e67652074686520494d472055524c000000000000000000000000006020830152604082019050919050565b60006121a4601883612c60565b91507f5468697320626f782069736e277420666f722073616c652e00000000000000006000830152602082019050919050565b60006121e4602f83612c60565b91507f4f6e6c7920746865207265616c206f776e6572206f662074686520626f78206360008301527f616e2072657472696576652069742e00000000000000000000000000000000006020830152604082019050919050565b600061224a601e83612c60565b91507f596f752063616e2774206275792074686520626f7820796f75206f776e2e00006000830152602082019050919050565b600061228a602583612c60565b91507f56616c75652073656e74206973206c657373207468616e207468652072656e7460008301527f20636f73740000000000000000000000000000000000000000000000000000006020830152604082019050919050565b60006122f0603383612c60565b91507f4f6e6c79207468652072656e746572206f662074686520616420626f7820636160008301527f6e206368616e6765207468652041642055524c000000000000000000000000006020830152604082019050919050565b6000612356603e83612c60565b91507f5468697320626f78206973206f776e6564206275742073686f756c642774206260008301527f652e2054686973206572726f722073686f756c646e2774206f636375722e00006020830152604082019050919050565b60006123bc604683612c60565b91507f5468697320626f78206973206e6f74206f776e656420627574206d61726b656460008301527f206173206f776e65642e2054686973206572726f722073686f756c646e27742060208301527f6f636375722e00000000000000000000000000000000000000000000000000006040830152606082019050919050565b6000612448603f83612c60565b91507f4f6e6c7920746865206f776e6572206f66207468697320636f6e74726163742060008301527f63616e2061737369676e2061206e657720636f6e7472616374206f776e6572006020830152604082019050919050565b60006124ae603c83612c60565b91507f4f6e6c7920746865206f776e6572206f66207468697320636f6e74726163742060008301527f63616e207570646174652074686520696e697469616c207072696365000000006020830152604082019050919050565b6000612514603583612c60565b91507f4f6e6c7920746865206f776e6572206f662074686520616420626f782063616e60008301527f206368616e6765207468652062757920707269636500000000000000000000006020830152604082019050919050565b600061257a605083612c60565b91507f5468697320626f782069732063757272656e746c792072656e7465642e20576160008301527f697420756e74696c207468652072656e74696e6720706572696f6420656e647360208301527f20746f2070757263686173652069742e000000000000000000000000000000006040830152606082019050919050565b6000612606603683612c60565b91507f4f6e6c7920746865206f776e6572206f662074686520616420626f782063616e60008301527f206368616e6765207468652072656e74207072696365000000000000000000006020830152604082019050919050565b600061266c603a83612c60565b91507f4f6e6c7920746865206f776e6572206f66207468697320636f6e74726163742060008301527f63616e207570646174652074686520696e697469616c2055524c0000000000006020830152604082019050919050565b60006126d2603483612c60565b91507f4f6e6c79207468652072656e746572206f662074686520616420626f7820636160008301527f6e206368616e67652074686520494d472055524c0000000000000000000000006020830152604082019050919050565b6000612738603583612c60565b91507f56616c75652073656e74206973206c657373207468616e20746865206275792060008301527f7072696365206f6620616e20656d70747920626f7800000000000000000000006020830152604082019050919050565b600061279e602583612c60565b91507f56616c75652073656e74206973206c657373207468616e20746865206275792060008301527f70726963650000000000000000000000000000000000000000000000000000006020830152604082019050919050565b61280081612d90565b82525050565b600060208201905061281b6000830184611ee8565b92915050565b600061012082019050612837600083018c611ee8565b612844602083018b611ee8565b8181036040830152612856818a611f06565b9050818103606083015261286a8189611f06565b905061287960808301886127f7565b61288660a0830187611ef7565b61289360c08301866127f7565b6128a060e08301856127f7565b6128ae6101008301846127f7565b9a9950505050505050505050565b60006020820190506128d16000830184611ef7565b92915050565b600060208201905081810360008301526128f18184611f06565b905092915050565b6000602082019050818103600083015261291281611f3f565b9050919050565b6000602082019050818103600083015261293281611fa5565b9050919050565b6000602082019050818103600083015261295281611fe5565b9050919050565b6000602082019050818103600083015261297281612025565b9050919050565b600060208201905081810360008301526129928161208b565b9050919050565b600060208201905081810360008301526129b2816120f1565b9050919050565b600060208201905081810360008301526129d281612131565b9050919050565b600060208201905081810360008301526129f281612197565b9050919050565b60006020820190508181036000830152612a12816121d7565b9050919050565b60006020820190508181036000830152612a328161223d565b9050919050565b60006020820190508181036000830152612a528161227d565b9050919050565b60006020820190508181036000830152612a72816122e3565b9050919050565b60006020820190508181036000830152612a9281612349565b9050919050565b60006020820190508181036000830152612ab2816123af565b9050919050565b60006020820190508181036000830152612ad28161243b565b9050919050565b60006020820190508181036000830152612af2816124a1565b9050919050565b60006020820190508181036000830152612b1281612507565b9050919050565b60006020820190508181036000830152612b328161256d565b9050919050565b60006020820190508181036000830152612b52816125f9565b9050919050565b60006020820190508181036000830152612b728161265f565b9050919050565b60006020820190508181036000830152612b92816126c5565b9050919050565b60006020820190508181036000830152612bb28161272b565b9050919050565b60006020820190508181036000830152612bd281612791565b9050919050565b6000602082019050612bee60008301846127f7565b92915050565b6000604051905081810181811067ffffffffffffffff82111715612c1b57612c1a612e9b565b5b8060405250919050565b600067ffffffffffffffff821115612c4057612c3f612e9b565b5b601f19601f8301169050602081019050919050565b600081519050919050565b600082825260208201905092915050565b6000612c7c82612d90565b9150612c8783612d90565b9250827fffffffffffffffffffffffffffffffffffffffffffffffffffffffffffffffff03821115612cbc57612cbb612e0e565b5b828201905092915050565b6000612cd282612d90565b9150612cdd83612d90565b925082612ced57612cec612e3d565b5b828204905092915050565b6000612d0382612d90565b9150612d0e83612d90565b9250817fffffffffffffffffffffffffffffffffffffffffffffffffffffffffffffffff0483118215151615612d4757612d46612e0e565b5b828202905092915050565b6000612d5d82612d70565b9050919050565b60008115159050919050565b600073ffffffffffffffffffffffffffffffffffffffff82169050919050565b6000819050919050565b82818337600083830152505050565b60005b83811015612dc7578082015181840152602081019050612dac565b83811115612dd6576000848401525b50505050565b60006002820490506001821680612df457607f821691505b60208210811415612e0857612e07612e6c565b5b50919050565b7f4e487b7100000000000000000000000000000000000000000000000000000000600052601160045260246000fd5b7f4e487b7100000000000000000000000000000000000000000000000000000000600052601260045260246000fd5b7f4e487b7100000000000000000000000000000000000000000000000000000000600052602260045260246000fd5b7f4e487b7100000000000000000000000000000000000000000000000000000000600052604160045260246000fd5b6000601f19601f8301169050919050565b612ee481612d52565b8114612eef57600080fd5b50565b612efb81612d90565b8114612f0657600080fd5b5056fea264697066735822122020c1c48a5e603ac169bcaa58d0b0f0c6d78c77671e9cd180094c877bc1fc8a2b64736f6c6343000800003368747470733a2f2f70726576696577732e31323372662e636f6d2f696d616765732f616c657877686974652f616c65787768697465313231312f616c657877686974653132313130303535392f31363232353739382d6275792d6e6f772d69636f6e2e6a7067",
  "immutableReferences": {},
  "source": "pragma solidity ^0.8.0;\n// SPDX-License-Identifier: UNLICENSED\n\ncontract ethereumAds {\n    mapping(uint256 => adBox) public adBoxes;\n    \n    uint private initial_price = 100 wei;\n    string private initial_url = \"https://previews.123rf.com/images/alexwhite/alexwhite1211/alexwhite121100559/16225798-buy-now-icon.jpg\";\n    uint private box_count = 100;\n    \n    address payable private contract_owner;\n\n    struct adBox {\n        address owner;\n        address renter;\n        string img_url;\n        string ad_url;\n        uint buy_price;\n        bool rented;\n        uint rent_start;\n        uint rent_period;\n        uint rent_price_daily;\n    }\n    \n    event boxBought(address indexed _buyer, uint _price);\n    event boxRented(address indexed _renter, uint _price);\n    event boxCountChanged(address indexed _renter, uint _price);\n    event initialUrlChanged(address indexed _renter, string _price);\n    event initialPriceChanged(address indexed _renter, uint _price);\n\n    constructor() {\n        contract_owner = payable(msg.sender);\n    }\n    \n    // Setters for contract owner \n    \n    function setBoxCount(uint _box_count) external{\n        require(msg.sender == contract_owner,  \"Only the owner of this contract can update the box count\");\n        box_count = _box_count;\n        emit boxCountChanged(msg.sender , _box_count);\n    }\n    \n    function setInitialUrl(string memory _initial_url) external{\n        require(msg.sender == contract_owner,  \"Only the owner of this contract can update the initial URL\");\n        initial_url = _initial_url;\n        emit initialUrlChanged(msg.sender , _initial_url);\n    }\n    \n    function setInitialPrice(uint _initial_price) external{\n        require(msg.sender == contract_owner, \"Only the owner of this contract can update the initial price\");\n        initial_price = _initial_price;\n        emit initialPriceChanged(msg.sender , _initial_price);\n    }\n    \n    function setContractOwner(address _new_owner) external{\n        require(msg.sender == contract_owner, \"Only the owner of this contract can assign a new contract owner\");\n        require(_new_owner != address(0));\n        contract_owner = payable(_new_owner);\n    }\n    \n    // Ad box interaction functions\n\n    function buyOwnedBox(uint _box_index) external payable {\n        require(adBoxes[_box_index].buy_price != 0, \"This box isn't for sale.\");\n        require(msg.sender != adBoxes[_box_index].owner, \"You can't buy the box you own.\");\n        require(msg.value >= adBoxes[_box_index].buy_price, \"Value sent is less than the buy price\");\n        require(adBoxes[_box_index].owner != address(0), \"This box is not owned but marked as owned. This error shouldn't occur.\");\n        require(!adBoxes[_box_index].rented , \"This box is currently rented. Wait until the renting period ends to purchase it.\");\n        \n        \n        adBoxes[_box_index].owner = msg.sender;\n        adBoxes[_box_index].buy_price = 0;\n        \n        emit boxBought(msg.sender, msg.value);\n\n        payable(adBoxes[_box_index].owner).transfer(msg.value);\n    }\n\n    function buyEmptyBox(uint _box_index) external payable {\n        require(msg.value >= initial_price, \"Value sent is less than the buy price of an empty box\");\n        require(adBoxes[_box_index].owner == address(0), \"This box is owned but should't be. This error shouldn't occur.\");\n\n        adBoxes[_box_index].owner = msg.sender;\n        adBoxes[_box_index].buy_price = 0;\n        \n        emit boxBought(msg.sender, msg.value);\n\n        contract_owner.transfer(msg.value);\n    }\n    \n    function rentBox(uint _box_index, uint _many_days) external payable {\n        require(msg.value >= adBoxes[_box_index].rent_price_daily * _many_days, \"Value sent is less than the rent cost\");\n        require(!adBoxes[_box_index].rented , \"The box is already on rent.\");\n        require(adBoxes[_box_index].rent_price_daily != 0 , \"The box is not for rent.\");\n         \n        adBoxes[_box_index].rent_start = block.number; // This should be checked\n        adBoxes[_box_index].rent_period = _many_days * 60 ; // days to seconds\n        \n        adBoxes[_box_index].rented = true;\n        adBoxes[_box_index].renter = msg.sender;\n        \n        \n        emit boxRented(msg.sender, msg.value);\n\n        payable(adBoxes[_box_index].owner).transfer(msg.value);\n    }\n    \n    function retrieveRentedBox(uint _box_index) external {\n        require(msg.sender >= adBoxes[_box_index].owner , \"Only the real owner of the box can retrieve it.\");\n        require(adBoxes[_box_index].rented , \"The box must be rented to be retrieved.\");\n        require(adBoxes[_box_index].rent_start + adBoxes[_box_index].rent_period/4 >= block.number, \"Rent period didn't end yet.\");\n   \n        adBoxes[_box_index].rented = false;\n        adBoxes[_box_index].renter = address(0);\n    }\n    \n    // Setters for box owners/renters\n\n    function setBuyPrice(uint _box_index, uint _price) external {\n        require(msg.sender == adBoxes[_box_index].owner, \"Only the owner of the ad box can change the buy price\");\n\n        adBoxes[_box_index].buy_price = _price;\n    }\n    \n    function setRentPrice(uint _box_index, uint _price) external {\n        require(msg.sender == adBoxes[_box_index].owner, \"Only the owner of the ad box can change the rent price\");\n\n        adBoxes[_box_index].rent_price_daily = _price;\n    }\n\n    function setImgUrl(uint _box_index, string memory _url) external {\n        \n        if(adBoxes[_box_index].rented){\n            require(msg.sender == adBoxes[_box_index].renter,  \"Only the renter of the ad box can change the IMG URL\");\n        }\n        \n        else{\n            require(msg.sender == adBoxes[_box_index].owner, \"Only the owner of the ad box can change the IMG URL\");\n        }\n        \n        adBoxes[_box_index].img_url = _url;\n    }\n    \n    \n    function setAdUrl(uint _box_index, string memory _url) external {\n        \n        if(adBoxes[_box_index].rented){\n            require(msg.sender == adBoxes[_box_index].renter,  \"Only the renter of the ad box can change the Ad URL\");\n        }\n        \n        else{\n            require(msg.sender == adBoxes[_box_index].owner, \"Only the owner of the ad box can change the Ad URL\");\n        }\n        \n        adBoxes[_box_index].ad_url = _url;\n    }\n    \n    // Getters\n\n    function getBuyPrice(uint _box_index) external view returns (uint) {\n        return adBoxes[_box_index].buy_price;\n    }\n    \n    function getRentPrice(uint _box_index) external view returns (uint) {\n        return adBoxes[_box_index].rent_price_daily;\n    }\n\n    function getImgUrl(uint _box_index) external view returns (string memory) {\n        return adBoxes[_box_index].img_url;\n    }\n    \n    function getAdUrl(uint _box_index) external view returns (string memory) {\n        return adBoxes[_box_index].ad_url;\n    }\n\n    function getOwner(uint _box_index) external view returns (address) {\n        return adBoxes[_box_index].owner;\n    }\n    \n    function getBoxCount() external view returns (uint){\n        return box_count;   \n    }\n    \n    function getInitialUrl() external view returns (string memory){\n        return initial_url;   \n    }\n\n    function isBoxOwned(uint _box_index) external view returns (bool){\n        return adBoxes[_box_index].owner == address(0) ? false : true;\n    }\n}",
  "sourcePath": "/home/mertmalaz/Desktop/dapp_fnl/ad-dapp/src/contracts/ad_contract.sol",
  "compiler": {
    "name": "solc",
    "version": "0.8.0+commit.c7dfd78e.Emscripten.clang"
  },
  "schemaVersion": "3.4.1",
  "updatedAt": "2021-05-31T13:40:16.450Z",
  "devdoc": {
    "kind": "dev",
    "methods": {},
    "version": 1
  },
  "userdoc": {
    "kind": "user",
    "methods": {},
    "version": 1
  }
}