{
  "contractName": "ethereumAds",
  "abi": [
    {
      "inputs": [],
      "stateMutability": "nonpayable",
      "type": "constructor"
    },
    {
      "inputs": [
        {
          "internalType": "uint256",
          "name": "",
          "type": "uint256"
        }
      ],
      "name": "adBoxes",
      "outputs": [
        {
          "internalType": "address",
          "name": "owner",
          "type": "address"
        },
        {
          "internalType": "string",
          "name": "url",
          "type": "string"
        },
        {
          "internalType": "bool",
          "name": "owned",
          "type": "bool"
        },
        {
          "internalType": "bool",
          "name": "rented",
          "type": "bool"
        },
        {
          "internalType": "uint256",
          "name": "price",
          "type": "uint256"
        }
      ],
      "stateMutability": "view",
      "type": "function"
    },
    {
      "inputs": [],
      "name": "box_count",
      "outputs": [
        {
          "internalType": "uint256",
          "name": "",
          "type": "uint256"
        }
      ],
      "stateMutability": "view",
      "type": "function"
    },
    {
      "inputs": [],
      "name": "initial_url",
      "outputs": [
        {
          "internalType": "string",
          "name": "",
          "type": "string"
        }
      ],
      "stateMutability": "view",
      "type": "function"
    },
    {
      "inputs": [
        {
          "internalType": "uint256",
          "name": "_box_count",
          "type": "uint256"
        }
      ],
      "name": "setBoxCount",
      "outputs": [],
      "stateMutability": "nonpayable",
      "type": "function"
    },
    {
      "inputs": [
        {
          "internalType": "string",
          "name": "_initial_url",
          "type": "string"
        }
      ],
      "name": "setInitialUrl",
      "outputs": [],
      "stateMutability": "nonpayable",
      "type": "function"
    },
    {
      "inputs": [
        {
          "internalType": "uint256",
          "name": "_initial_price",
          "type": "uint256"
        }
      ],
      "name": "setInitialPrice",
      "outputs": [],
      "stateMutability": "nonpayable",
      "type": "function"
    },
    {
      "inputs": [
        {
          "internalType": "uint256",
          "name": "_box_index",
          "type": "uint256"
        }
      ],
      "name": "buyOwnedBox",
      "outputs": [],
      "stateMutability": "payable",
      "type": "function"
    },
    {
      "inputs": [
        {
          "internalType": "uint256",
          "name": "_box_index",
          "type": "uint256"
        }
      ],
      "name": "buyEmptyBox",
      "outputs": [],
      "stateMutability": "payable",
      "type": "function"
    },
    {
      "inputs": [
        {
          "internalType": "uint256",
          "name": "_box_index",
          "type": "uint256"
        },
        {
          "internalType": "uint256",
          "name": "_price",
          "type": "uint256"
        }
      ],
      "name": "setPrice",
      "outputs": [],
      "stateMutability": "nonpayable",
      "type": "function"
    },
    {
      "inputs": [
        {
          "internalType": "uint256",
          "name": "_box_index",
          "type": "uint256"
        },
        {
          "internalType": "string",
          "name": "_url",
          "type": "string"
        }
      ],
      "name": "setUrl",
      "outputs": [],
      "stateMutability": "nonpayable",
      "type": "function"
    },
    {
      "inputs": [
        {
          "internalType": "uint256",
          "name": "_box_index",
          "type": "uint256"
        }
      ],
      "name": "getPrice",
      "outputs": [
        {
          "internalType": "uint256",
          "name": "",
          "type": "uint256"
        }
      ],
      "stateMutability": "view",
      "type": "function"
    },
    {
      "inputs": [
        {
          "internalType": "uint256",
          "name": "_box_index",
          "type": "uint256"
        }
      ],
      "name": "getUrl",
      "outputs": [
        {
          "internalType": "string",
          "name": "",
          "type": "string"
        }
      ],
      "stateMutability": "view",
      "type": "function"
    },
    {
      "inputs": [
        {
          "internalType": "uint256",
          "name": "_box_index",
          "type": "uint256"
        }
      ],
      "name": "getOwner",
      "outputs": [
        {
          "internalType": "address",
          "name": "",
          "type": "address"
        }
      ],
      "stateMutability": "view",
      "type": "function"
    },
    {
      "inputs": [
        {
          "internalType": "uint256",
          "name": "_box_index",
          "type": "uint256"
        }
      ],
      "name": "isBoxOwned",
      "outputs": [
        {
          "internalType": "bool",
          "name": "",
          "type": "bool"
        }
      ],
      "stateMutability": "view",
      "type": "function"
    },
    {
      "inputs": [],
      "name": "getBoxCount",
      "outputs": [
        {
          "internalType": "uint256",
          "name": "",
          "type": "uint256"
        }
      ],
      "stateMutability": "view",
      "type": "function"
    }
  ],
  "bytecode": "0x6080604052606460015568056bc75e2d631000006002556040518060a001604052806066815260200162001212606691396003908051906020019062000047929190620000a2565b5060646004553480156200005a57600080fd5b5033600560006101000a81548173ffffffffffffffffffffffffffffffffffffffff021916908373ffffffffffffffffffffffffffffffffffffffff160217905550620001b7565b828054620000b09062000152565b90600052602060002090601f016020900481019282620000d4576000855562000120565b82601f10620000ef57805160ff191683800117855562000120565b8280016001018555821562000120579182015b828111156200011f57825182559160200191906001019062000102565b5b5090506200012f919062000133565b5090565b5b808211156200014e57600081600090555060010162000134565b5090565b600060028204905060018216806200016b57607f821691505b6020821081141562000182576200018162000188565b5b50919050565b7f4e487b7100000000000000000000000000000000000000000000000000000000600052602260045260246000fd5b61104b80620001c76000396000f3fe6080604052600436106100e85760003560e01c806393f705ee1161008a578063c41a360a11610059578063c41a360a146102da578063cc3b059414610317578063e757223014610342578063f7d975771461037f576100e8565b806393f705ee146102325780639b925a511461025d5780639f4ba0ee14610288578063aef95098146102b1576100e8565b806342ac35f9116100c657806342ac35f91461015b5780634f88b70f1461019c57806383ef3639146101d957806385604d89146101f5576100e8565b8063142648c4146100ed5780631dc8ca7f1461011657806329658ae214610132575b600080fd5b3480156100f957600080fd5b50610114600480360381019061010f9190610c6a565b6103a8565b005b610130600480360381019061012b9190610c6a565b6103b2565b005b34801561013e57600080fd5b5061015960048036038101906101549190610c29565b610522565b005b34801561016757600080fd5b50610182600480360381019061017d9190610c6a565b61053c565b604051610193959493929190610da4565b60405180910390f35b3480156101a857600080fd5b506101c360048036038101906101be9190610c6a565b610634565b6040516101d09190610dfe565b60405180910390f35b6101f360048036038101906101ee9190610c6a565b610660565b005b34801561020157600080fd5b5061021c60048036038101906102179190610c6a565b610836565b6040516102299190610e19565b60405180910390f35b34801561023e57600080fd5b506102476108dd565b6040516102549190610e3b565b60405180910390f35b34801561026957600080fd5b506102726108e7565b60405161027f9190610e19565b60405180910390f35b34801561029457600080fd5b506102af60048036038101906102aa9190610c6a565b610975565b005b3480156102bd57600080fd5b506102d860048036038101906102d39190610c93565b61097f565b005b3480156102e657600080fd5b5061030160048036038101906102fc9190610c6a565b610a1a565b60405161030e9190610d89565b60405180910390f35b34801561032357600080fd5b5061032c610a59565b6040516103399190610e3b565b60405180910390f35b34801561034e57600080fd5b5061036960048036038101906103649190610c6a565b610a5f565b6040516103769190610e3b565b60405180910390f35b34801561038b57600080fd5b506103a660048036038101906103a19190610ce7565b610a7e565b005b8060048190555050565b6002546000808381526020019081526020016000206003015414156103d657600080fd5b6000151560008083815260200190815260200160002060020160009054906101000a900460ff1615151461040957600080fd5b60015434101561041857600080fd5b600560009054906101000a900473ffffffffffffffffffffffffffffffffffffffff1673ffffffffffffffffffffffffffffffffffffffff166108fc349081150290604051600060405180830381858888f19350505050158015610480573d6000803e3d6000fd5b503360008083815260200190815260200160002060000160006101000a81548173ffffffffffffffffffffffffffffffffffffffff021916908373ffffffffffffffffffffffffffffffffffffffff160217905550600160008083815260200190815260200160002060020160006101000a81548160ff0219169083151502179055506002546000808381526020019081526020016000206003018190555050565b8060039080519060200190610538929190610b09565b5050565b60006020528060005260406000206000915090508060000160009054906101000a900473ffffffffffffffffffffffffffffffffffffffff169080600101805461058590610f5d565b80601f01602080910402602001604051908101604052809291908181526020018280546105b190610f5d565b80156105fe5780601f106105d3576101008083540402835291602001916105fe565b820191906000526020600020905b8154815290600101906020018083116105e157829003601f168201915b5050505050908060020160009054906101000a900460ff16908060020160019054906101000a900460ff16908060030154905085565b600080600083815260200190815260200160002060020160009054906101000a900460ff169050919050565b60025460008083815260200190815260200160002060030154141561068457600080fd5b6001151560008083815260200190815260200160002060020160009054906101000a900460ff161515146106b757600080fd5b60008082815260200190815260200160002060000160009054906101000a900473ffffffffffffffffffffffffffffffffffffffff1673ffffffffffffffffffffffffffffffffffffffff163373ffffffffffffffffffffffffffffffffffffffff16141561072557600080fd5b6000808281526020019081526020016000206003015434101561074757600080fd5b60008082815260200190815260200160002060000160009054906101000a900473ffffffffffffffffffffffffffffffffffffffff1673ffffffffffffffffffffffffffffffffffffffff166108fc349081150290604051600060405180830381858888f193505050501580156107c2573d6000803e3d6000fd5b503360008083815260200190815260200160002060000160006101000a81548173ffffffffffffffffffffffffffffffffffffffff021916908373ffffffffffffffffffffffffffffffffffffffff1602179055506002546000808381526020019081526020016000206003018190555050565b6060600080838152602001908152602001600020600101805461085890610f5d565b80601f016020809104026020016040519081016040528092919081815260200182805461088490610f5d565b80156108d15780601f106108a6576101008083540402835291602001916108d1565b820191906000526020600020905b8154815290600101906020018083116108b457829003601f168201915b50505050509050919050565b6000600454905090565b600380546108f490610f5d565b80601f016020809104026020016040519081016040528092919081815260200182805461092090610f5d565b801561096d5780601f106109425761010080835404028352916020019161096d565b820191906000526020600020905b81548152906001019060200180831161095057829003601f168201915b505050505081565b8060018190555050565b60008083815260200190815260200160002060000160009054906101000a900473ffffffffffffffffffffffffffffffffffffffff1673ffffffffffffffffffffffffffffffffffffffff163373ffffffffffffffffffffffffffffffffffffffff16146109ec57600080fd5b806000808481526020019081526020016000206001019080519060200190610a15929190610b09565b505050565b600080600083815260200190815260200160002060000160009054906101000a900473ffffffffffffffffffffffffffffffffffffffff169050919050565b60045481565b6000806000838152602001908152602001600020600301549050919050565b60008083815260200190815260200160002060000160009054906101000a900473ffffffffffffffffffffffffffffffffffffffff1673ffffffffffffffffffffffffffffffffffffffff163373ffffffffffffffffffffffffffffffffffffffff1614610aeb57600080fd5b80600080848152602001908152602001600020600301819055505050565b828054610b1590610f5d565b90600052602060002090601f016020900481019282610b375760008555610b7e565b82601f10610b5057805160ff1916838001178555610b7e565b82800160010185558215610b7e579182015b82811115610b7d578251825591602001919060010190610b62565b5b509050610b8b9190610b8f565b5090565b5b80821115610ba8576000816000905550600101610b90565b5090565b6000610bbf610bba84610e87565b610e56565b905082815260208101848484011115610bd757600080fd5b610be2848285610f1b565b509392505050565b600082601f830112610bfb57600080fd5b8135610c0b848260208601610bac565b91505092915050565b600081359050610c2381610ffe565b92915050565b600060208284031215610c3b57600080fd5b600082013567ffffffffffffffff811115610c5557600080fd5b610c6184828501610bea565b91505092915050565b600060208284031215610c7c57600080fd5b6000610c8a84828501610c14565b91505092915050565b60008060408385031215610ca657600080fd5b6000610cb485828601610c14565b925050602083013567ffffffffffffffff811115610cd157600080fd5b610cdd85828601610bea565b9150509250929050565b60008060408385031215610cfa57600080fd5b6000610d0885828601610c14565b9250506020610d1985828601610c14565b9150509250929050565b610d2c81610ed3565b82525050565b610d3b81610ee5565b82525050565b6000610d4c82610eb7565b610d568185610ec2565b9350610d66818560208601610f2a565b610d6f81610fed565b840191505092915050565b610d8381610f11565b82525050565b6000602082019050610d9e6000830184610d23565b92915050565b600060a082019050610db96000830188610d23565b8181036020830152610dcb8187610d41565b9050610dda6040830186610d32565b610de76060830185610d32565b610df46080830184610d7a565b9695505050505050565b6000602082019050610e136000830184610d32565b92915050565b60006020820190508181036000830152610e338184610d41565b905092915050565b6000602082019050610e506000830184610d7a565b92915050565b6000604051905081810181811067ffffffffffffffff82111715610e7d57610e7c610fbe565b5b8060405250919050565b600067ffffffffffffffff821115610ea257610ea1610fbe565b5b601f19601f8301169050602081019050919050565b600081519050919050565b600082825260208201905092915050565b6000610ede82610ef1565b9050919050565b60008115159050919050565b600073ffffffffffffffffffffffffffffffffffffffff82169050919050565b6000819050919050565b82818337600083830152505050565b60005b83811015610f48578082015181840152602081019050610f2d565b83811115610f57576000848401525b50505050565b60006002820490506001821680610f7557607f821691505b60208210811415610f8957610f88610f8f565b5b50919050565b7f4e487b7100000000000000000000000000000000000000000000000000000000600052602260045260246000fd5b7f4e487b7100000000000000000000000000000000000000000000000000000000600052604160045260246000fd5b6000601f19601f8301169050919050565b61100781610f11565b811461101257600080fd5b5056fea2646970667358221220a717032a88392bbe4e6fc758cfd951ff7bf6981bbc3fb80277904f493c09011964736f6c6343000800003368747470733a2f2f70726576696577732e31323372662e636f6d2f696d616765732f616c657877686974652f616c65787768697465313231312f616c657877686974653132313130303535392f31363232353739382d6275792d6e6f772d69636f6e2e6a7067",
  "immutableReferences": {},
  "source": "pragma solidity ^0.8.0;\n\ncontract ethereumAds {\n    mapping(uint256 => adBox) public adBoxes;\n    uint256 initial_price = 100 wei;\n    uint256 MAX_PRICE = 100 ether;\n    string public initial_url = \"https://previews.123rf.com/images/alexwhite/alexwhite1211/alexwhite121100559/16225798-buy-now-icon.jpg\";\n    uint256 public  box_count = 100;\n    address  payable private contractCreator;\n\n    struct adBox {\n        address owner;\n        string url;\n        bool owned;\n        bool rented;\n        uint256 price;\n    }\n\n    constructor() {\n        contractCreator = payable(msg.sender);\n    }\n    \n    function setBoxCount(uint256 _box_count) external{\n        box_count = _box_count;\n    }\n    \n    function setInitialUrl(string memory _initial_url) external{\n        initial_url = _initial_url;\n    }\n    \n    function setInitialPrice(uint256 _initial_price) external{\n        initial_price = _initial_price;\n    }\n\n    function buyOwnedBox(uint256 _box_index) public payable {\n        // Prevents anyone from buying until owner decides a price\n        require(adBoxes[_box_index].price != MAX_PRICE);\n        require(adBoxes[_box_index].owned == true);\n        require(msg.sender != adBoxes[_box_index].owner);\n        require(msg.value >= adBoxes[_box_index].price);\n\n        payable(adBoxes[_box_index].owner).transfer(msg.value);\n        adBoxes[_box_index].owner = msg.sender;\n        adBoxes[_box_index].price = MAX_PRICE;\n    }\n\n    function buyEmptyBox(uint256 _box_index) public payable {\n        require(adBoxes[_box_index].price != MAX_PRICE);\n        require(adBoxes[_box_index].owned == false);\n        require(msg.value >= initial_price);\n\n        contractCreator.transfer(msg.value);\n        adBoxes[_box_index].owner = msg.sender;\n        adBoxes[_box_index].owned = true;\n\n        adBoxes[_box_index].price = MAX_PRICE;\n    }\n\n    function setPrice(uint256 _box_index, uint256 _price) public {\n        require(msg.sender == adBoxes[_box_index].owner);\n\n        adBoxes[_box_index].price = _price;\n    }\n\n    function setUrl(uint256 _box_index, string memory _url) public {\n        require(msg.sender == adBoxes[_box_index].owner);\n        adBoxes[_box_index].url = _url;\n    }\n\n    function getPrice(uint256 _box_index) public view returns (uint256) {\n        return adBoxes[_box_index].price;\n    }\n\n    function getUrl(uint256 _box_index) public view returns (string memory) {\n        return adBoxes[_box_index].url;\n    }\n\n    function getOwner(uint256 _box_index) public view returns (address) {\n        return adBoxes[_box_index].owner;\n    }\n\n    function isBoxOwned(uint256 _box_index) public view returns (bool) {\n        return adBoxes[_box_index].owned;\n    }\n    \n    function getBoxCount() public view returns (uint256){\n        return box_count;   \n    }\n}\n",
  "sourcePath": "/home/mertmalaz/Desktop/ad-dapp/src/contracts/ad_contract.sol",
  "compiler": {
    "name": "solc",
    "version": "0.8.0+commit.c7dfd78e.Emscripten.clang"
  },
  "schemaVersion": "3.4.1",
  "updatedAt": "2021-05-29T13:40:47.492Z",
  "devdoc": {
    "kind": "dev",
    "methods": {},
    "version": 1
  },
  "userdoc": {
    "kind": "user",
    "methods": {},
    "version": 1
  }
}