{
  "contractName": "ethereumAds",
  "abi": [
    {
      "inputs": [],
      "stateMutability": "nonpayable",
      "type": "constructor"
    },
    {
      "anonymous": false,
      "inputs": [
        {
          "indexed": true,
          "internalType": "address",
          "name": "_buyer",
          "type": "address"
        },
        {
          "indexed": false,
          "internalType": "uint256",
          "name": "_price",
          "type": "uint256"
        }
      ],
      "name": "boxBought",
      "type": "event"
    },
    {
      "anonymous": false,
      "inputs": [
        {
          "indexed": true,
          "internalType": "address",
          "name": "_renter",
          "type": "address"
        },
        {
          "indexed": false,
          "internalType": "uint256",
          "name": "_price",
          "type": "uint256"
        }
      ],
      "name": "boxRented",
      "type": "event"
    },
    {
      "inputs": [
        {
          "internalType": "uint256",
          "name": "",
          "type": "uint256"
        }
      ],
      "name": "adBoxes",
      "outputs": [
        {
          "internalType": "address",
          "name": "owner",
          "type": "address"
        },
        {
          "internalType": "address",
          "name": "renter",
          "type": "address"
        },
        {
          "internalType": "string",
          "name": "img_url",
          "type": "string"
        },
        {
          "internalType": "string",
          "name": "ad_url",
          "type": "string"
        },
        {
          "internalType": "uint256",
          "name": "buy_price",
          "type": "uint256"
        },
        {
          "internalType": "bool",
          "name": "rented",
          "type": "bool"
        },
        {
          "internalType": "uint256",
          "name": "rent_start",
          "type": "uint256"
        },
        {
          "internalType": "uint256",
          "name": "rent_period",
          "type": "uint256"
        },
        {
          "internalType": "uint256",
          "name": "rent_price_daily",
          "type": "uint256"
        }
      ],
      "stateMutability": "view",
      "type": "function"
    },
    {
      "inputs": [
        {
          "internalType": "uint256",
          "name": "_box_count",
          "type": "uint256"
        }
      ],
      "name": "setBoxCount",
      "outputs": [],
      "stateMutability": "nonpayable",
      "type": "function"
    },
    {
      "inputs": [
        {
          "internalType": "string",
          "name": "_initial_url",
          "type": "string"
        }
      ],
      "name": "setInitialUrl",
      "outputs": [],
      "stateMutability": "nonpayable",
      "type": "function"
    },
    {
      "inputs": [
        {
          "internalType": "uint256",
          "name": "_initial_price",
          "type": "uint256"
        }
      ],
      "name": "setInitialPrice",
      "outputs": [],
      "stateMutability": "nonpayable",
      "type": "function"
    },
    {
      "inputs": [
        {
          "internalType": "address",
          "name": "_new_owner",
          "type": "address"
        }
      ],
      "name": "setContractOwner",
      "outputs": [],
      "stateMutability": "nonpayable",
      "type": "function"
    },
    {
      "inputs": [
        {
          "internalType": "uint256",
          "name": "_box_index",
          "type": "uint256"
        }
      ],
      "name": "buyOwnedBox",
      "outputs": [],
      "stateMutability": "payable",
      "type": "function"
    },
    {
      "inputs": [
        {
          "internalType": "uint256",
          "name": "_box_index",
          "type": "uint256"
        }
      ],
      "name": "buyEmptyBox",
      "outputs": [],
      "stateMutability": "payable",
      "type": "function"
    },
    {
      "inputs": [
        {
          "internalType": "uint256",
          "name": "_box_index",
          "type": "uint256"
        },
        {
          "internalType": "uint256",
          "name": "_many_days",
          "type": "uint256"
        }
      ],
      "name": "rentBox",
      "outputs": [],
      "stateMutability": "payable",
      "type": "function"
    },
    {
      "inputs": [
        {
          "internalType": "uint256",
          "name": "_box_index",
          "type": "uint256"
        }
      ],
      "name": "retrieveRentedBox",
      "outputs": [],
      "stateMutability": "nonpayable",
      "type": "function"
    },
    {
      "inputs": [
        {
          "internalType": "uint256",
          "name": "_box_index",
          "type": "uint256"
        },
        {
          "internalType": "uint256",
          "name": "_price",
          "type": "uint256"
        }
      ],
      "name": "setBuyPrice",
      "outputs": [],
      "stateMutability": "nonpayable",
      "type": "function"
    },
    {
      "inputs": [
        {
          "internalType": "uint256",
          "name": "_box_index",
          "type": "uint256"
        },
        {
          "internalType": "uint256",
          "name": "_price",
          "type": "uint256"
        }
      ],
      "name": "setRentPrice",
      "outputs": [],
      "stateMutability": "nonpayable",
      "type": "function"
    },
    {
      "inputs": [
        {
          "internalType": "uint256",
          "name": "_box_index",
          "type": "uint256"
        },
        {
          "internalType": "string",
          "name": "_url",
          "type": "string"
        }
      ],
      "name": "setImgUrl",
      "outputs": [],
      "stateMutability": "nonpayable",
      "type": "function"
    },
    {
      "inputs": [
        {
          "internalType": "uint256",
          "name": "_box_index",
          "type": "uint256"
        },
        {
          "internalType": "string",
          "name": "_url",
          "type": "string"
        }
      ],
      "name": "setAdUrl",
      "outputs": [],
      "stateMutability": "nonpayable",
      "type": "function"
    },
    {
      "inputs": [
        {
          "internalType": "uint256",
          "name": "_box_index",
          "type": "uint256"
        }
      ],
      "name": "getBuyPrice",
      "outputs": [
        {
          "internalType": "uint256",
          "name": "",
          "type": "uint256"
        }
      ],
      "stateMutability": "view",
      "type": "function"
    },
    {
      "inputs": [
        {
          "internalType": "uint256",
          "name": "_box_index",
          "type": "uint256"
        }
      ],
      "name": "getPrice",
      "outputs": [
        {
          "internalType": "uint256",
          "name": "",
          "type": "uint256"
        }
      ],
      "stateMutability": "view",
      "type": "function"
    },
    {
      "inputs": [
        {
          "internalType": "uint256",
          "name": "_box_index",
          "type": "uint256"
        }
      ],
      "name": "getImgUrl",
      "outputs": [
        {
          "internalType": "string",
          "name": "",
          "type": "string"
        }
      ],
      "stateMutability": "view",
      "type": "function"
    },
    {
      "inputs": [
        {
          "internalType": "uint256",
          "name": "_box_index",
          "type": "uint256"
        }
      ],
      "name": "getAdUrl",
      "outputs": [
        {
          "internalType": "string",
          "name": "",
          "type": "string"
        }
      ],
      "stateMutability": "view",
      "type": "function"
    },
    {
      "inputs": [
        {
          "internalType": "uint256",
          "name": "_box_index",
          "type": "uint256"
        }
      ],
      "name": "getOwner",
      "outputs": [
        {
          "internalType": "address",
          "name": "",
          "type": "address"
        }
      ],
      "stateMutability": "view",
      "type": "function"
    },
    {
      "inputs": [],
      "name": "getBoxCount",
      "outputs": [
        {
          "internalType": "uint256",
          "name": "",
          "type": "uint256"
        }
      ],
      "stateMutability": "view",
      "type": "function"
    },
    {
      "inputs": [],
      "name": "getInitialUrl",
      "outputs": [
        {
          "internalType": "string",
          "name": "",
          "type": "string"
        }
      ],
      "stateMutability": "view",
      "type": "function"
    },
    {
      "inputs": [
        {
          "internalType": "uint256",
          "name": "_box_index",
          "type": "uint256"
        }
      ],
      "name": "isBoxOwned",
      "outputs": [
        {
          "internalType": "bool",
          "name": "",
          "type": "bool"
        }
      ],
      "stateMutability": "view",
      "type": "function"
    }
  ],
  "bytecode": "0x608060405260646001556040518060a001604052806066815260200162002f7560669139600290805190602001906200003a92919062000095565b5060646003553480156200004d57600080fd5b5033600460006101000a81548173ffffffffffffffffffffffffffffffffffffffff021916908373ffffffffffffffffffffffffffffffffffffffff160217905550620001aa565b828054620000a39062000145565b90600052602060002090601f016020900481019282620000c7576000855562000113565b82601f10620000e257805160ff191683800117855562000113565b8280016001018555821562000113579182015b8281111562000112578251825591602001919060010190620000f5565b5b50905062000122919062000126565b5090565b5b808211156200014157600081600090555060010162000127565b5090565b600060028204905060018216806200015e57607f821691505b602082108114156200017557620001746200017b565b5b50919050565b7f4e487b7100000000000000000000000000000000000000000000000000000000600052602260045260246000fd5b612dbb80620001ba6000396000f3fe60806040526004361061012a5760003560e01c80639f4ba0ee116100ab578063c41a360a1161006f578063c41a360a146103ec578063e24ee26714610429578063e757223014610452578063e93f3f8d1461048f578063f5403730146104b8578063fc0af892146104e15761012a565b80639f4ba0ee146102f7578063a34d42b814610320578063aa617f2514610349578063af052c5514610386578063c084d542146103af5761012a565b8063483aa04a116100f2578063483aa04a1461021f5780634f88b70f1461024a57806383ef36391461028757806393f705ee146102a357806399fbf3a2146102ce5761012a565b806308d4db141461012f578063142648c41461016c5780631dc8ca7f1461019557806329658ae2146101b157806342ac35f9146101da575b600080fd5b34801561013b57600080fd5b5061015660048036038101906101519190611d0b565b6104fd565b6040516101639190612ab5565b60405180910390f35b34801561017857600080fd5b50610193600480360381019061018e9190611d0b565b61051c565b005b6101af60048036038101906101aa9190611d0b565b6105b6565b005b3480156101bd57600080fd5b506101d860048036038101906101d39190611cca565b6107c8565b005b3480156101e657600080fd5b5061020160048036038101906101fc9190611d0b565b610872565b604051610216999897969594939291906126fd565b60405180910390f35b34801561022b57600080fd5b50610234610a1d565b60405161024191906127b3565b60405180910390f35b34801561025657600080fd5b50610271600480360381019061026c9190611d0b565b610aaf565b60405161027e9190612798565b60405180910390f35b6102a1600480360381019061029c9190611d0b565b610b2a565b005b3480156102af57600080fd5b506102b8610ec9565b6040516102c59190612ab5565b60405180910390f35b3480156102da57600080fd5b506102f560048036038101906102f09190611d88565b610ed3565b005b34801561030357600080fd5b5061031e60048036038101906103199190611d0b565b610f94565b005b34801561032c57600080fd5b5061034760048036038101906103429190611ca1565b61102e565b005b34801561035557600080fd5b50610370600480360381019061036b9190611d0b565b611102565b60405161037d91906127b3565b60405180910390f35b34801561039257600080fd5b506103ad60048036038101906103a89190611d34565b6111a9565b005b3480156103bb57600080fd5b506103d660048036038101906103d19190611d0b565b61134b565b6040516103e391906127b3565b60405180910390f35b3480156103f857600080fd5b50610413600480360381019061040e9190611d0b565b6113f2565b60405161042091906126e2565b60405180910390f35b34801561043557600080fd5b50610450600480360381019061044b9190611d0b565b611431565b005b34801561045e57600080fd5b5061047960048036038101906104749190611d0b565b611635565b6040516104869190612ab5565b60405180910390f35b34801561049b57600080fd5b506104b660048036038101906104b19190611d88565b611654565b005b3480156104c457600080fd5b506104df60048036038101906104da9190611d34565b611715565b005b6104fb60048036038101906104f69190611d88565b6118b7565b005b6000806000838152602001908152602001600020600401549050919050565b600460009054906101000a900473ffffffffffffffffffffffffffffffffffffffff1673ffffffffffffffffffffffffffffffffffffffff163373ffffffffffffffffffffffffffffffffffffffff16146105ac576040517f08c379a00000000000000000000000000000000000000000000000000000000081526004016105a390612835565b60405180910390fd5b8060038190555050565b6001543410156105fb576040517f08c379a00000000000000000000000000000000000000000000000000000000081526004016105f290612a75565b60405180910390fd5b600073ffffffffffffffffffffffffffffffffffffffff1660008083815260200190815260200160002060000160009054906101000a900473ffffffffffffffffffffffffffffffffffffffff1673ffffffffffffffffffffffffffffffffffffffff161461069f576040517f08c379a000000000000000000000000000000000000000000000000000000000815260040161069690612955565b60405180910390fd5b600460009054906101000a900473ffffffffffffffffffffffffffffffffffffffff1673ffffffffffffffffffffffffffffffffffffffff166108fc349081150290604051600060405180830381858888f19350505050158015610707573d6000803e3d6000fd5b503360008083815260200190815260200160002060000160006101000a81548173ffffffffffffffffffffffffffffffffffffffff021916908373ffffffffffffffffffffffffffffffffffffffff1602179055506000806000838152602001908152602001600020600401819055503373ffffffffffffffffffffffffffffffffffffffff167f35e0aac1ca4984fb63f1566a672cdd6f47c9a0a5701fd22afe19eb0ddcf15873346040516107bd9190612ab5565b60405180910390a250565b600460009054906101000a900473ffffffffffffffffffffffffffffffffffffffff1673ffffffffffffffffffffffffffffffffffffffff163373ffffffffffffffffffffffffffffffffffffffff1614610858576040517f08c379a000000000000000000000000000000000000000000000000000000000815260040161084f90612a35565b60405180910390fd5b806002908051906020019061086e929190611b6c565b5050565b60006020528060005260406000206000915090508060000160009054906101000a900473ffffffffffffffffffffffffffffffffffffffff16908060010160009054906101000a900473ffffffffffffffffffffffffffffffffffffffff16908060020180546108e190612c87565b80601f016020809104026020016040519081016040528092919081815260200182805461090d90612c87565b801561095a5780601f1061092f5761010080835404028352916020019161095a565b820191906000526020600020905b81548152906001019060200180831161093d57829003601f168201915b50505050509080600301805461096f90612c87565b80601f016020809104026020016040519081016040528092919081815260200182805461099b90612c87565b80156109e85780601f106109bd576101008083540402835291602001916109e8565b820191906000526020600020905b8154815290600101906020018083116109cb57829003601f168201915b5050505050908060040154908060050160009054906101000a900460ff16908060060154908060070154908060080154905089565b606060028054610a2c90612c87565b80601f0160208091040260200160405190810160405280929190818152602001828054610a5890612c87565b8015610aa55780601f10610a7a57610100808354040283529160200191610aa5565b820191906000526020600020905b815481529060010190602001808311610a8857829003601f168201915b5050505050905090565b60008073ffffffffffffffffffffffffffffffffffffffff1660008084815260200190815260200160002060000160009054906101000a900473ffffffffffffffffffffffffffffffffffffffff1673ffffffffffffffffffffffffffffffffffffffff1614610b20576001610b23565b60005b9050919050565b6000806000838152602001908152602001600020600401541415610b83576040517f08c379a0000000000000000000000000000000000000000000000000000000008152600401610b7a906128b5565b60405180910390fd5b60008082815260200190815260200160002060000160009054906101000a900473ffffffffffffffffffffffffffffffffffffffff1673ffffffffffffffffffffffffffffffffffffffff163373ffffffffffffffffffffffffffffffffffffffff161415610c27576040517f08c379a0000000000000000000000000000000000000000000000000000000008152600401610c1e906128f5565b60405180910390fd5b60008082815260200190815260200160002060040154341015610c7f576040517f08c379a0000000000000000000000000000000000000000000000000000000008152600401610c7690612a95565b60405180910390fd5b600073ffffffffffffffffffffffffffffffffffffffff1660008083815260200190815260200160002060000160009054906101000a900473ffffffffffffffffffffffffffffffffffffffff1673ffffffffffffffffffffffffffffffffffffffff161415610d24576040517f08c379a0000000000000000000000000000000000000000000000000000000008152600401610d1b90612975565b60405180910390fd5b6000151560008083815260200190815260200160002060050160009054906101000a900460ff16151514610d8d576040517f08c379a0000000000000000000000000000000000000000000000000000000008152600401610d84906129f5565b60405180910390fd5b60008082815260200190815260200160002060000160009054906101000a900473ffffffffffffffffffffffffffffffffffffffff1673ffffffffffffffffffffffffffffffffffffffff166108fc349081150290604051600060405180830381858888f19350505050158015610e08573d6000803e3d6000fd5b503360008083815260200190815260200160002060000160006101000a81548173ffffffffffffffffffffffffffffffffffffffff021916908373ffffffffffffffffffffffffffffffffffffffff1602179055506000806000838152602001908152602001600020600401819055503373ffffffffffffffffffffffffffffffffffffffff167f35e0aac1ca4984fb63f1566a672cdd6f47c9a0a5701fd22afe19eb0ddcf1587334604051610ebe9190612ab5565b60405180910390a250565b6000600354905090565b60008083815260200190815260200160002060000160009054906101000a900473ffffffffffffffffffffffffffffffffffffffff1673ffffffffffffffffffffffffffffffffffffffff163373ffffffffffffffffffffffffffffffffffffffff1614610f76576040517f08c379a0000000000000000000000000000000000000000000000000000000008152600401610f6d90612a15565b60405180910390fd5b80600080848152602001908152602001600020600801819055505050565b600460009054906101000a900473ffffffffffffffffffffffffffffffffffffffff1673ffffffffffffffffffffffffffffffffffffffff163373ffffffffffffffffffffffffffffffffffffffff1614611024576040517f08c379a000000000000000000000000000000000000000000000000000000000815260040161101b906129b5565b60405180910390fd5b8060018190555050565b600460009054906101000a900473ffffffffffffffffffffffffffffffffffffffff1673ffffffffffffffffffffffffffffffffffffffff163373ffffffffffffffffffffffffffffffffffffffff16146110be576040517f08c379a00000000000000000000000000000000000000000000000000000000081526004016110b590612995565b60405180910390fd5b80600460006101000a81548173ffffffffffffffffffffffffffffffffffffffff021916908373ffffffffffffffffffffffffffffffffffffffff16021790555050565b6060600080838152602001908152602001600020600301805461112490612c87565b80601f016020809104026020016040519081016040528092919081815260200182805461115090612c87565b801561119d5780601f106111725761010080835404028352916020019161119d565b820191906000526020600020905b81548152906001019060200180831161118057829003601f168201915b50505050509050919050565b60008083815260200190815260200160002060050160009054906101000a900460ff16156112795760008083815260200190815260200160002060010160009054906101000a900473ffffffffffffffffffffffffffffffffffffffff1673ffffffffffffffffffffffffffffffffffffffff163373ffffffffffffffffffffffffffffffffffffffff1614611274576040517f08c379a000000000000000000000000000000000000000000000000000000000815260040161126b90612a55565b60405180910390fd5b61131d565b60008083815260200190815260200160002060000160009054906101000a900473ffffffffffffffffffffffffffffffffffffffff1673ffffffffffffffffffffffffffffffffffffffff163373ffffffffffffffffffffffffffffffffffffffff161461131c576040517f08c379a000000000000000000000000000000000000000000000000000000000815260040161131390612895565b60405180910390fd5b5b806000808481526020019081526020016000206002019080519060200190611346929190611b6c565b505050565b6060600080838152602001908152602001600020600201805461136d90612c87565b80601f016020809104026020016040519081016040528092919081815260200182805461139990612c87565b80156113e65780601f106113bb576101008083540402835291602001916113e6565b820191906000526020600020905b8154815290600101906020018083116113c957829003601f168201915b50505050509050919050565b600080600083815260200190815260200160002060000160009054906101000a900473ffffffffffffffffffffffffffffffffffffffff169050919050565b60008082815260200190815260200160002060000160009054906101000a900473ffffffffffffffffffffffffffffffffffffffff1673ffffffffffffffffffffffffffffffffffffffff163373ffffffffffffffffffffffffffffffffffffffff1610156114d5576040517f08c379a00000000000000000000000000000000000000000000000000000000081526004016114cc906128d5565b60405180910390fd5b60008082815260200190815260200160002060050160009054906101000a900460ff16611537576040517f08c379a000000000000000000000000000000000000000000000000000000000815260040161152e906127d5565b60405180910390fd5b42600080838152602001908152602001600020600701546000808481526020019081526020016000206006015461156e9190612b4d565b10156115af576040517f08c379a00000000000000000000000000000000000000000000000000000000081526004016115a6906127f5565b60405180910390fd5b600080600083815260200190815260200160002060050160006101000a81548160ff021916908315150217905550600080600083815260200190815260200160002060010160006101000a81548173ffffffffffffffffffffffffffffffffffffffff021916908373ffffffffffffffffffffffffffffffffffffffff16021790555050565b6000806000838152602001908152602001600020600401549050919050565b60008083815260200190815260200160002060000160009054906101000a900473ffffffffffffffffffffffffffffffffffffffff1673ffffffffffffffffffffffffffffffffffffffff163373ffffffffffffffffffffffffffffffffffffffff16146116f7576040517f08c379a00000000000000000000000000000000000000000000000000000000081526004016116ee906129d5565b60405180910390fd5b80600080848152602001908152602001600020600401819055505050565b60008083815260200190815260200160002060050160009054906101000a900460ff16156117e55760008083815260200190815260200160002060010160009054906101000a900473ffffffffffffffffffffffffffffffffffffffff1673ffffffffffffffffffffffffffffffffffffffff163373ffffffffffffffffffffffffffffffffffffffff16146117e0576040517f08c379a00000000000000000000000000000000000000000000000000000000081526004016117d790612935565b60405180910390fd5b611889565b60008083815260200190815260200160002060000160009054906101000a900473ffffffffffffffffffffffffffffffffffffffff1673ffffffffffffffffffffffffffffffffffffffff163373ffffffffffffffffffffffffffffffffffffffff1614611888576040517f08c379a000000000000000000000000000000000000000000000000000000000815260040161187f90612855565b60405180910390fd5b5b8060008084815260200190815260200160002060030190805190602001906118b2929190611b6c565b505050565b80600080848152602001908152602001600020600801546118d89190612ba3565b34101561191a576040517f08c379a000000000000000000000000000000000000000000000000000000000815260040161191190612915565b60405180910390fd5b6000151560008084815260200190815260200160002060050160009054906101000a900460ff16151514611983576040517f08c379a000000000000000000000000000000000000000000000000000000000815260040161197a90612815565b60405180910390fd5b60008060008481526020019081526020016000206008015414156119dc576040517f08c379a00000000000000000000000000000000000000000000000000000000081526004016119d390612875565b60405180910390fd5b4260008084815260200190815260200160002060060181905550603c81611a039190612ba3565b60008084815260200190815260200160002060070181905550600160008084815260200190815260200160002060050160006101000a81548160ff0219169083151502179055503360008084815260200190815260200160002060010160006101000a81548173ffffffffffffffffffffffffffffffffffffffff021916908373ffffffffffffffffffffffffffffffffffffffff16021790555060008083815260200190815260200160002060000160009054906101000a900473ffffffffffffffffffffffffffffffffffffffff1673ffffffffffffffffffffffffffffffffffffffff166108fc349081150290604051600060405180830381858888f19350505050158015611b19573d6000803e3d6000fd5b503373ffffffffffffffffffffffffffffffffffffffff167f777ae211b6f87d915263895d61dffb46b153f1b358f646ee5e41701b56b7069634604051611b609190612ab5565b60405180910390a25050565b828054611b7890612c87565b90600052602060002090601f016020900481019282611b9a5760008555611be1565b82601f10611bb357805160ff1916838001178555611be1565b82800160010185558215611be1579182015b82811115611be0578251825591602001919060010190611bc5565b5b509050611bee9190611bf2565b5090565b5b80821115611c0b576000816000905550600101611bf3565b5090565b6000611c22611c1d84612b01565b612ad0565b905082815260208101848484011115611c3a57600080fd5b611c45848285612c45565b509392505050565b600081359050611c5c81612d57565b92915050565b600082601f830112611c7357600080fd5b8135611c83848260208601611c0f565b91505092915050565b600081359050611c9b81612d6e565b92915050565b600060208284031215611cb357600080fd5b6000611cc184828501611c4d565b91505092915050565b600060208284031215611cdc57600080fd5b600082013567ffffffffffffffff811115611cf657600080fd5b611d0284828501611c62565b91505092915050565b600060208284031215611d1d57600080fd5b6000611d2b84828501611c8c565b91505092915050565b60008060408385031215611d4757600080fd5b6000611d5585828601611c8c565b925050602083013567ffffffffffffffff811115611d7257600080fd5b611d7e85828601611c62565b9150509250929050565b60008060408385031215611d9b57600080fd5b6000611da985828601611c8c565b9250506020611dba85828601611c8c565b9150509250929050565b611dcd81612bfd565b82525050565b611ddc81612c0f565b82525050565b6000611ded82612b31565b611df78185612b3c565b9350611e07818560208601612c54565b611e1081612d46565b840191505092915050565b6000611e28602783612b3c565b91507f54686520626f78206d7573742062652072656e74656420746f2062652072657460008301527f7269657665642e000000000000000000000000000000000000000000000000006020830152604082019050919050565b6000611e8e601b83612b3c565b91507f52656e7420706572696f64206469646e277420656e64207965742e00000000006000830152602082019050919050565b6000611ece601b83612b3c565b91507f54686520626f7820697320616c7265616479206f6e2072656e742e00000000006000830152602082019050919050565b6000611f0e603883612b3c565b91507f4f6e6c7920746865206f776e6572206f66207468697320636f6e74726163742060008301527f63616e207570646174652074686520626f7820636f756e7400000000000000006020830152604082019050919050565b6000611f74603283612b3c565b91507f4f6e6c7920746865206f776e6572206f662074686520616420626f782063616e60008301527f206368616e6765207468652041642055524c00000000000000000000000000006020830152604082019050919050565b6000611fda601883612b3c565b91507f54686520626f78206973206e6f7420666f722072656e742e00000000000000006000830152602082019050919050565b600061201a603383612b3c565b91507f4f6e6c7920746865206f776e6572206f662074686520616420626f782063616e60008301527f206368616e67652074686520494d472055524c000000000000000000000000006020830152604082019050919050565b6000612080601883612b3c565b91507f5468697320626f782069736e277420666f722073616c652e00000000000000006000830152602082019050919050565b60006120c0602f83612b3c565b91507f4f6e6c7920746865207265616c206f776e6572206f662074686520626f78206360008301527f616e2072657472696576652069742e00000000000000000000000000000000006020830152604082019050919050565b6000612126601e83612b3c565b91507f596f752063616e2774206275792074686520626f7820796f75206f776e2e00006000830152602082019050919050565b6000612166602583612b3c565b91507f56616c75652073656e74206973206c657373207468616e207468652072656e7460008301527f20636f73740000000000000000000000000000000000000000000000000000006020830152604082019050919050565b60006121cc603383612b3c565b91507f4f6e6c79207468652072656e746572206f662074686520616420626f7820636160008301527f6e206368616e6765207468652041642055524c000000000000000000000000006020830152604082019050919050565b6000612232603e83612b3c565b91507f5468697320626f78206973206f776e6564206275742073686f756c642774206260008301527f652e2054686973206572726f722073686f756c646e2774206f636375722e00006020830152604082019050919050565b6000612298604683612b3c565b91507f5468697320626f78206973206e6f74206f776e656420627574206d61726b656460008301527f206173206f776e65642e2054686973206572726f722073686f756c646e27742060208301527f6f636375722e00000000000000000000000000000000000000000000000000006040830152606082019050919050565b6000612324603f83612b3c565b91507f4f6e6c7920746865206f776e6572206f66207468697320636f6e74726163742060008301527f63616e2061737369676e2061206e657720636f6e7472616374206f776e6572006020830152604082019050919050565b600061238a603c83612b3c565b91507f4f6e6c7920746865206f776e6572206f66207468697320636f6e74726163742060008301527f63616e207570646174652074686520696e697469616c207072696365000000006020830152604082019050919050565b60006123f0603583612b3c565b91507f4f6e6c7920746865206f776e6572206f662074686520616420626f782063616e60008301527f206368616e6765207468652062757920707269636500000000000000000000006020830152604082019050919050565b6000612456605083612b3c565b91507f5468697320626f782069732063757272656e746c792072656e7465642e20576160008301527f697420756e74696c207468652072656e74696e6720706572696f6420656e647360208301527f20746f2070757263686173652069742e000000000000000000000000000000006040830152606082019050919050565b60006124e2603683612b3c565b91507f4f6e6c7920746865206f776e6572206f662074686520616420626f782063616e60008301527f206368616e6765207468652072656e74207072696365000000000000000000006020830152604082019050919050565b6000612548603a83612b3c565b91507f4f6e6c7920746865206f776e6572206f66207468697320636f6e74726163742060008301527f63616e207570646174652074686520696e697469616c2055524c0000000000006020830152604082019050919050565b60006125ae603483612b3c565b91507f4f6e6c79207468652072656e746572206f662074686520616420626f7820636160008301527f6e206368616e67652074686520494d472055524c0000000000000000000000006020830152604082019050919050565b6000612614603583612b3c565b91507f56616c75652073656e74206973206c657373207468616e20746865206275792060008301527f7072696365206f6620616e20656d70747920626f7800000000000000000000006020830152604082019050919050565b600061267a602583612b3c565b91507f56616c75652073656e74206973206c657373207468616e20746865206275792060008301527f70726963650000000000000000000000000000000000000000000000000000006020830152604082019050919050565b6126dc81612c3b565b82525050565b60006020820190506126f76000830184611dc4565b92915050565b600061012082019050612713600083018c611dc4565b612720602083018b611dc4565b8181036040830152612732818a611de2565b905081810360608301526127468189611de2565b905061275560808301886126d3565b61276260a0830187611dd3565b61276f60c08301866126d3565b61277c60e08301856126d3565b61278a6101008301846126d3565b9a9950505050505050505050565b60006020820190506127ad6000830184611dd3565b92915050565b600060208201905081810360008301526127cd8184611de2565b905092915050565b600060208201905081810360008301526127ee81611e1b565b9050919050565b6000602082019050818103600083015261280e81611e81565b9050919050565b6000602082019050818103600083015261282e81611ec1565b9050919050565b6000602082019050818103600083015261284e81611f01565b9050919050565b6000602082019050818103600083015261286e81611f67565b9050919050565b6000602082019050818103600083015261288e81611fcd565b9050919050565b600060208201905081810360008301526128ae8161200d565b9050919050565b600060208201905081810360008301526128ce81612073565b9050919050565b600060208201905081810360008301526128ee816120b3565b9050919050565b6000602082019050818103600083015261290e81612119565b9050919050565b6000602082019050818103600083015261292e81612159565b9050919050565b6000602082019050818103600083015261294e816121bf565b9050919050565b6000602082019050818103600083015261296e81612225565b9050919050565b6000602082019050818103600083015261298e8161228b565b9050919050565b600060208201905081810360008301526129ae81612317565b9050919050565b600060208201905081810360008301526129ce8161237d565b9050919050565b600060208201905081810360008301526129ee816123e3565b9050919050565b60006020820190508181036000830152612a0e81612449565b9050919050565b60006020820190508181036000830152612a2e816124d5565b9050919050565b60006020820190508181036000830152612a4e8161253b565b9050919050565b60006020820190508181036000830152612a6e816125a1565b9050919050565b60006020820190508181036000830152612a8e81612607565b9050919050565b60006020820190508181036000830152612aae8161266d565b9050919050565b6000602082019050612aca60008301846126d3565b92915050565b6000604051905081810181811067ffffffffffffffff82111715612af757612af6612d17565b5b8060405250919050565b600067ffffffffffffffff821115612b1c57612b1b612d17565b5b601f19601f8301169050602081019050919050565b600081519050919050565b600082825260208201905092915050565b6000612b5882612c3b565b9150612b6383612c3b565b9250827fffffffffffffffffffffffffffffffffffffffffffffffffffffffffffffffff03821115612b9857612b97612cb9565b5b828201905092915050565b6000612bae82612c3b565b9150612bb983612c3b565b9250817fffffffffffffffffffffffffffffffffffffffffffffffffffffffffffffffff0483118215151615612bf257612bf1612cb9565b5b828202905092915050565b6000612c0882612c1b565b9050919050565b60008115159050919050565b600073ffffffffffffffffffffffffffffffffffffffff82169050919050565b6000819050919050565b82818337600083830152505050565b60005b83811015612c72578082015181840152602081019050612c57565b83811115612c81576000848401525b50505050565b60006002820490506001821680612c9f57607f821691505b60208210811415612cb357612cb2612ce8565b5b50919050565b7f4e487b7100000000000000000000000000000000000000000000000000000000600052601160045260246000fd5b7f4e487b7100000000000000000000000000000000000000000000000000000000600052602260045260246000fd5b7f4e487b7100000000000000000000000000000000000000000000000000000000600052604160045260246000fd5b6000601f19601f8301169050919050565b612d6081612bfd565b8114612d6b57600080fd5b50565b612d7781612c3b565b8114612d8257600080fd5b5056fea2646970667358221220048d65dc2fd5d29757541b496cfbc18d6ee4f9e116b4b91f206ed4f61471f71b64736f6c6343000800003368747470733a2f2f70726576696577732e31323372662e636f6d2f696d616765732f616c657877686974652f616c65787768697465313231312f616c657877686974653132313130303535392f31363232353739382d6275792d6e6f772d69636f6e2e6a7067",
  "immutableReferences": {},
  "source": "pragma solidity ^0.8.0;\n\ncontract ethereumAds {\n    mapping(uint256 => adBox) public adBoxes;\n    \n    uint private initial_price = 100 wei;\n    string private initial_url = \"https://previews.123rf.com/images/alexwhite/alexwhite1211/alexwhite121100559/16225798-buy-now-icon.jpg\";\n    uint private box_count = 100;\n    \n    address payable private contract_owner;\n\n    struct adBox {\n        address owner;\n        address renter;\n        string img_url;\n        string ad_url;\n        uint buy_price;\n        bool rented;\n        uint rent_start;\n        uint rent_period;\n        uint rent_price_daily;\n    }\n    \n    event boxBought(address indexed _buyer, uint _price);\n    event boxRented(address indexed _renter, uint _price);\n\n    constructor() {\n        contract_owner = payable(msg.sender);\n    }\n    \n    // Setters for contract owner \n    \n    function setBoxCount(uint _box_count) external{\n        require(msg.sender == contract_owner,  \"Only the owner of this contract can update the box count\");\n        box_count = _box_count;\n    }\n    \n    function setInitialUrl(string memory _initial_url) external{\n        require(msg.sender == contract_owner,  \"Only the owner of this contract can update the initial URL\");\n        initial_url = _initial_url;\n    }\n    \n    function setInitialPrice(uint _initial_price) external{\n        require(msg.sender == contract_owner, \"Only the owner of this contract can update the initial price\");\n        initial_price = _initial_price;\n    }\n    \n    function setContractOwner(address _new_owner) external{\n        require(msg.sender == contract_owner, \"Only the owner of this contract can assign a new contract owner\");\n        contract_owner = payable(_new_owner);\n    }\n    \n    // Ad box interaction functions\n\n    function buyOwnedBox(uint _box_index) external payable {\n        require(adBoxes[_box_index].buy_price != 0, \"This box isn't for sale.\");\n        require(msg.sender != adBoxes[_box_index].owner, \"You can't buy the box you own.\");\n        require(msg.value >= adBoxes[_box_index].buy_price, \"Value sent is less than the buy price\");\n        require(adBoxes[_box_index].owner != address(0), \"This box is not owned but marked as owned. This error shouldn't occur.\");\n        require(adBoxes[_box_index].rented == false , \"This box is currently rented. Wait until the renting period ends to purchase it.\");\n        \n        payable(adBoxes[_box_index].owner).transfer(msg.value);\n        adBoxes[_box_index].owner = msg.sender;\n        adBoxes[_box_index].buy_price = 0;\n        \n        emit boxBought(msg.sender, msg.value);\n    }\n\n    function buyEmptyBox(uint _box_index) external payable {\n        require(msg.value >= initial_price, \"Value sent is less than the buy price of an empty box\");\n        require(adBoxes[_box_index].owner == address(0), \"This box is owned but should't be. This error shouldn't occur.\");\n\n        contract_owner.transfer(msg.value);\n        \n        adBoxes[_box_index].owner = msg.sender;\n        adBoxes[_box_index].buy_price = 0;\n        \n        emit boxBought(msg.sender, msg.value);\n    }\n    \n    function rentBox(uint _box_index, uint _many_days) external payable {\n        require(msg.value >= adBoxes[_box_index].rent_price_daily * _many_days, \"Value sent is less than the rent cost\");\n        require(adBoxes[_box_index].rented == false , \"The box is already on rent.\");\n        require(adBoxes[_box_index].rent_price_daily != 0 , \"The box is not for rent.\");\n         \n        adBoxes[_box_index].rent_start = block.timestamp;\n        adBoxes[_box_index].rent_period = _many_days * 60; // days to seconds\n        \n        adBoxes[_box_index].rented = true;\n        adBoxes[_box_index].renter = msg.sender;\n        \n        payable(adBoxes[_box_index].owner).transfer(msg.value);\n        \n        emit boxRented(msg.sender, msg.value);\n    }\n    \n    function retrieveRentedBox(uint _box_index) external {\n        require(msg.sender >= adBoxes[_box_index].owner , \"Only the real owner of the box can retrieve it.\");\n        require(adBoxes[_box_index].rented , \"The box must be rented to be retrieved.\");\n        require(adBoxes[_box_index].rent_start + adBoxes[_box_index].rent_period >= block.timestamp, \"Rent period didn't end yet.\");\n   \n        adBoxes[_box_index].rented = false;\n        adBoxes[_box_index].renter = address(0);\n    }\n    \n    // Setters for box owners/renters\n\n    function setBuyPrice(uint _box_index, uint _price) external {\n        require(msg.sender == adBoxes[_box_index].owner, \"Only the owner of the ad box can change the buy price\");\n\n        adBoxes[_box_index].buy_price = _price;\n    }\n    \n    function setRentPrice(uint _box_index, uint _price) external {\n        require(msg.sender == adBoxes[_box_index].owner, \"Only the owner of the ad box can change the rent price\");\n\n        adBoxes[_box_index].rent_price_daily = _price;\n    }\n\n    function setImgUrl(uint _box_index, string memory _url) external {\n        \n        if(adBoxes[_box_index].rented){\n            require(msg.sender == adBoxes[_box_index].renter,  \"Only the renter of the ad box can change the IMG URL\");\n        }\n        \n        else{\n            require(msg.sender == adBoxes[_box_index].owner, \"Only the owner of the ad box can change the IMG URL\");\n        }\n        \n        adBoxes[_box_index].img_url = _url;\n    }\n    \n    \n    function setAdUrl(uint _box_index, string memory _url) external {\n        \n        if(adBoxes[_box_index].rented){\n            require(msg.sender == adBoxes[_box_index].renter,  \"Only the renter of the ad box can change the Ad URL\");\n        }\n        \n        else{\n            require(msg.sender == adBoxes[_box_index].owner, \"Only the owner of the ad box can change the Ad URL\");\n        }\n        \n        adBoxes[_box_index].ad_url = _url;\n    }\n    \n    // Getters\n\n    function getBuyPrice(uint _box_index) external view returns (uint) {\n        return adBoxes[_box_index].buy_price;\n    }\n    \n    function getPrice(uint _box_index) external view returns (uint) {\n        return adBoxes[_box_index].buy_price;\n    }\n\n    function getImgUrl(uint _box_index) external view returns (string memory) {\n        return adBoxes[_box_index].img_url;\n    }\n    \n    function getAdUrl(uint _box_index) external view returns (string memory) {\n        return adBoxes[_box_index].ad_url;\n    }\n\n    function getOwner(uint _box_index) external view returns (address) {\n        return adBoxes[_box_index].owner;\n    }\n    \n    function getBoxCount() external view returns (uint){\n        return box_count;   \n    }\n    \n    function getInitialUrl() external view returns (string memory){\n        return initial_url;   \n    }\n\n    function isBoxOwned(uint _box_index) external view returns (bool){\n        return adBoxes[_box_index].owner == address(0) ? false : true;\n    }\n}\n",
  "sourcePath": "/home/mertmalaz/Desktop/dapp_almost_final/ad-dapp/src/contracts/ad_contract.sol",
  "compiler": {
    "name": "solc",
    "version": "0.8.0+commit.c7dfd78e.Emscripten.clang"
  },
  "schemaVersion": "3.4.1",
  "updatedAt": "2021-05-31T09:57:00.676Z",
  "devdoc": {
    "kind": "dev",
    "methods": {},
    "version": 1
  },
  "userdoc": {
    "kind": "user",
    "methods": {},
    "version": 1
  }
}