{
  "contractName": "HTLC",
  "abi": [
    {
      "inputs": [
        {
          "internalType": "address",
          "name": "",
          "type": "address"
        }
      ],
      "name": "m_HTLCs",
      "outputs": [
        {
          "internalType": "uint256",
          "name": "startTime",
          "type": "uint256"
        },
        {
          "internalType": "uint256",
          "name": "lockTime",
          "type": "uint256"
        },
        {
          "internalType": "string",
          "name": "secret",
          "type": "string"
        },
        {
          "internalType": "bytes32",
          "name": "hash_of_secret",
          "type": "bytes32"
        },
        {
          "internalType": "address",
          "name": "receiver",
          "type": "address"
        },
        {
          "internalType": "uint256",
          "name": "amount",
          "type": "uint256"
        },
        {
          "internalType": "contract IERC20",
          "name": "token",
          "type": "address"
        }
      ],
      "stateMutability": "view",
      "type": "function"
    },
    {
      "inputs": [
        {
          "internalType": "address",
          "name": "_receiver",
          "type": "address"
        },
        {
          "internalType": "address",
          "name": "_token",
          "type": "address"
        },
        {
          "internalType": "uint256",
          "name": "_amount",
          "type": "uint256"
        },
        {
          "internalType": "bytes32",
          "name": "_hash",
          "type": "bytes32"
        }
      ],
      "name": "create_htlc",
      "outputs": [],
      "stateMutability": "nonpayable",
      "type": "function"
    },
    {
      "inputs": [],
      "name": "fund",
      "outputs": [],
      "stateMutability": "nonpayable",
      "type": "function"
    },
    {
      "inputs": [
        {
          "internalType": "address",
          "name": "_owner",
          "type": "address"
        },
        {
          "internalType": "string",
          "name": "_secret",
          "type": "string"
        }
      ],
      "name": "withdraw",
      "outputs": [],
      "stateMutability": "nonpayable",
      "type": "function"
    },
    {
      "inputs": [
        {
          "internalType": "address",
          "name": "_sender",
          "type": "address"
        }
      ],
      "name": "getHash",
      "outputs": [
        {
          "internalType": "bytes32",
          "name": "",
          "type": "bytes32"
        }
      ],
      "stateMutability": "view",
      "type": "function"
    },
    {
      "inputs": [],
      "name": "getSecret",
      "outputs": [
        {
          "internalType": "string",
          "name": "",
          "type": "string"
        }
      ],
      "stateMutability": "view",
      "type": "function"
    },
    {
      "inputs": [],
      "name": "refund",
      "outputs": [],
      "stateMutability": "nonpayable",
      "type": "function"
    },
    {
      "inputs": [],
      "name": "resetTime",
      "outputs": [],
      "stateMutability": "nonpayable",
      "type": "function"
    }
  ],
  "bytecode": "0x608060405234801561001057600080fd5b5061159b806100206000396000f3fe608060405234801561001057600080fd5b50600436106100885760003560e01c80636e6b11011161005b5780636e6b1101146100ef578063aea31a2a1461010b578063b60d428814610141578063fd3f87461461014b57610088565b80631da0b8fc1461008d578063590e1ae3146100bd5780635b9fdc30146100c757806365a114f1146100e5575b600080fd5b6100a760048036038101906100a29190610e84565b610167565b6040516100b49190611190565b60405180910390f35b6100c56101b2565b005b6100cf6103b3565b6040516100dc91906111ab565b60405180910390f35b6100ed610484565b005b61010960048036038101906101049190610f10565b610514565b005b61012560048036038101906101209190610e84565b610841565b604051610138979695949392919061122d565b60405180910390f35b61014961094b565b005b61016560048036038101906101609190610ead565b610ac5565b005b60008060008373ffffffffffffffffffffffffffffffffffffffff1673ffffffffffffffffffffffffffffffffffffffff168152602001908152602001600020600301549050919050565b6000803373ffffffffffffffffffffffffffffffffffffffff1673ffffffffffffffffffffffffffffffffffffffff168152602001908152602001600020600101546000803373ffffffffffffffffffffffffffffffffffffffff1673ffffffffffffffffffffffffffffffffffffffff16815260200190815260200160002060000154610240919061132b565b4211610281576040517f08c379a0000000000000000000000000000000000000000000000000000000008152600401610278906111ed565b60405180910390fd5b6000803373ffffffffffffffffffffffffffffffffffffffff1673ffffffffffffffffffffffffffffffffffffffff16815260200190815260200160002060060160009054906101000a900473ffffffffffffffffffffffffffffffffffffffff1673ffffffffffffffffffffffffffffffffffffffff1663a9059cbb336000803373ffffffffffffffffffffffffffffffffffffffff1673ffffffffffffffffffffffffffffffffffffffff168152602001908152602001600020600501546040518363ffffffff1660e01b815260040161035e929190611167565b602060405180830381600087803b15801561037857600080fd5b505af115801561038c573d6000803e3d6000fd5b505050506040513d601f19601f820116820180604052508101906103b09190610f64565b50565b60606000803373ffffffffffffffffffffffffffffffffffffffff1673ffffffffffffffffffffffffffffffffffffffff168152602001908152602001600020600201805461040190611439565b80601f016020809104026020016040519081016040528092919081815260200182805461042d90611439565b801561047a5780601f1061044f5761010080835404028352916020019161047a565b820191906000526020600020905b81548152906001019060200180831161045d57829003601f168201915b5050505050905090565b60008060003373ffffffffffffffffffffffffffffffffffffffff1673ffffffffffffffffffffffffffffffffffffffff1681526020019081526020016000206000018190555060008060003373ffffffffffffffffffffffffffffffffffffffff1673ffffffffffffffffffffffffffffffffffffffff16815260200190815260200160002060010181905550565b6000808373ffffffffffffffffffffffffffffffffffffffff1673ffffffffffffffffffffffffffffffffffffffff16815260200190815260200160002060030154816040516020016105679190611119565b60405160208183030381529060405280519060200120146105bd576040517f08c379a00000000000000000000000000000000000000000000000000000000081526004016105b4906111cd565b60405180910390fd5b6000808373ffffffffffffffffffffffffffffffffffffffff1673ffffffffffffffffffffffffffffffffffffffff16815260200190815260200160002060040160009054906101000a900473ffffffffffffffffffffffffffffffffffffffff1673ffffffffffffffffffffffffffffffffffffffff163373ffffffffffffffffffffffffffffffffffffffff161461065657600080fd5b806000808473ffffffffffffffffffffffffffffffffffffffff1673ffffffffffffffffffffffffffffffffffffffff16815260200190815260200160002060020190805190602001906106ab929190610d25565b506000808373ffffffffffffffffffffffffffffffffffffffff1673ffffffffffffffffffffffffffffffffffffffff16815260200190815260200160002060060160009054906101000a900473ffffffffffffffffffffffffffffffffffffffff1673ffffffffffffffffffffffffffffffffffffffff1663a9059cbb6000808573ffffffffffffffffffffffffffffffffffffffff1673ffffffffffffffffffffffffffffffffffffffff16815260200190815260200160002060040160009054906101000a900473ffffffffffffffffffffffffffffffffffffffff166000808673ffffffffffffffffffffffffffffffffffffffff1673ffffffffffffffffffffffffffffffffffffffff168152602001908152602001600020600501546040518363ffffffff1660e01b81526004016107ea929190611167565b602060405180830381600087803b15801561080457600080fd5b505af1158015610818573d6000803e3d6000fd5b505050506040513d601f19601f8201168201806040525081019061083c9190610f64565b505050565b600060205280600052604060002060009150905080600001549080600101549080600201805461087090611439565b80601f016020809104026020016040519081016040528092919081815260200182805461089c90611439565b80156108e95780601f106108be576101008083540402835291602001916108e9565b820191906000526020600020905b8154815290600101906020018083116108cc57829003601f168201915b5050505050908060030154908060040160009054906101000a900473ffffffffffffffffffffffffffffffffffffffff16908060050154908060060160009054906101000a900473ffffffffffffffffffffffffffffffffffffffff16905087565b426000803373ffffffffffffffffffffffffffffffffffffffff1673ffffffffffffffffffffffffffffffffffffffff168152602001908152602001600020600001819055506000803373ffffffffffffffffffffffffffffffffffffffff1673ffffffffffffffffffffffffffffffffffffffff16815260200190815260200160002060060160009054906101000a900473ffffffffffffffffffffffffffffffffffffffff1673ffffffffffffffffffffffffffffffffffffffff166323b872dd33306000803373ffffffffffffffffffffffffffffffffffffffff1673ffffffffffffffffffffffffffffffffffffffff168152602001908152602001600020600501546040518463ffffffff1660e01b8152600401610a7093929190611130565b602060405180830381600087803b158015610a8a57600080fd5b505af1158015610a9e573d6000803e3d6000fd5b505050506040513d601f19601f82011682018060405250810190610ac29190610f64565b50565b426000803373ffffffffffffffffffffffffffffffffffffffff1673ffffffffffffffffffffffffffffffffffffffff168152602001908152602001600020600101546000803373ffffffffffffffffffffffffffffffffffffffff1673ffffffffffffffffffffffffffffffffffffffff16815260200190815260200160002060000154610b54919061132b565b10610b94576040517f08c379a0000000000000000000000000000000000000000000000000000000008152600401610b8b9061120d565b60405180910390fd5b60006040518060e001604052806000815260200161271081526020016040518060200160405280600081525081526020018381526020018673ffffffffffffffffffffffffffffffffffffffff1681526020018481526020018573ffffffffffffffffffffffffffffffffffffffff168152509050806000803373ffffffffffffffffffffffffffffffffffffffff1673ffffffffffffffffffffffffffffffffffffffff16815260200190815260200160002060008201518160000155602082015181600101556040820151816002019080519060200190610c78929190610d25565b506060820151816003015560808201518160040160006101000a81548173ffffffffffffffffffffffffffffffffffffffff021916908373ffffffffffffffffffffffffffffffffffffffff16021790555060a0820151816005015560c08201518160060160006101000a81548173ffffffffffffffffffffffffffffffffffffffff021916908373ffffffffffffffffffffffffffffffffffffffff1602179055509050505050505050565b828054610d3190611439565b90600052602060002090601f016020900481019282610d535760008555610d9a565b82601f10610d6c57805160ff1916838001178555610d9a565b82800160010185558215610d9a579182015b82811115610d99578251825591602001919060010190610d7e565b5b509050610da79190610dab565b5090565b5b80821115610dc4576000816000905550600101610dac565b5090565b6000610ddb610dd6846112d4565b6112a3565b905082815260208101848484011115610df357600080fd5b610dfe8482856113f7565b509392505050565b600081359050610e1581611509565b92915050565b600081519050610e2a81611520565b92915050565b600081359050610e3f81611537565b92915050565b600082601f830112610e5657600080fd5b8135610e66848260208601610dc8565b91505092915050565b600081359050610e7e8161154e565b92915050565b600060208284031215610e9657600080fd5b6000610ea484828501610e06565b91505092915050565b60008060008060808587031215610ec357600080fd5b6000610ed187828801610e06565b9450506020610ee287828801610e06565b9350506040610ef387828801610e6f565b9250506060610f0487828801610e30565b91505092959194509250565b60008060408385031215610f2357600080fd5b6000610f3185828601610e06565b925050602083013567ffffffffffffffff811115610f4e57600080fd5b610f5a85828601610e45565b9150509250929050565b600060208284031215610f7657600080fd5b6000610f8484828501610e1b565b91505092915050565b610f9681611381565b82525050565b610fa58161139f565b82525050565b610fb4816113d3565b82525050565b6000610fc582611304565b610fcf818561130f565b9350610fdf818560208601611406565b610fe8816114f8565b840191505092915050565b6000610ffe82611304565b6110088185611320565b9350611018818560208601611406565b80840191505092915050565b6000611031600c8361130f565b91507f77726f6e672073656372657400000000000000000000000000000000000000006000830152602082019050919050565b600061107160098361130f565b91507f746f6f206561726c7900000000000000000000000000000000000000000000006000830152602082019050919050565b60006110b160318361130f565b91507f412048544c4320697320616c726561647920696e20706c6163652e205761697460008301527f20666f72207468697320746f20656e642e0000000000000000000000000000006020830152604082019050919050565b611113816113c9565b82525050565b60006111258284610ff3565b915081905092915050565b60006060820190506111456000830186610f8d565b6111526020830185610f8d565b61115f604083018461110a565b949350505050565b600060408201905061117c6000830185610f8d565b611189602083018461110a565b9392505050565b60006020820190506111a56000830184610f9c565b92915050565b600060208201905081810360008301526111c58184610fba565b905092915050565b600060208201905081810360008301526111e681611024565b9050919050565b6000602082019050818103600083015261120681611064565b9050919050565b60006020820190508181036000830152611226816110a4565b9050919050565b600060e082019050611242600083018a61110a565b61124f602083018961110a565b81810360408301526112618188610fba565b90506112706060830187610f9c565b61127d6080830186610f8d565b61128a60a083018561110a565b61129760c0830184610fab565b98975050505050505050565b6000604051905081810181811067ffffffffffffffff821117156112ca576112c96114c9565b5b8060405250919050565b600067ffffffffffffffff8211156112ef576112ee6114c9565b5b601f19601f8301169050602081019050919050565b600081519050919050565b600082825260208201905092915050565b600081905092915050565b6000611336826113c9565b9150611341836113c9565b9250827fffffffffffffffffffffffffffffffffffffffffffffffffffffffffffffffff038211156113765761137561146b565b5b828201905092915050565b600061138c826113a9565b9050919050565b60008115159050919050565b6000819050919050565b600073ffffffffffffffffffffffffffffffffffffffff82169050919050565b6000819050919050565b60006113de826113e5565b9050919050565b60006113f0826113a9565b9050919050565b82818337600083830152505050565b60005b83811015611424578082015181840152602081019050611409565b83811115611433576000848401525b50505050565b6000600282049050600182168061145157607f821691505b602082108114156114655761146461149a565b5b50919050565b7f4e487b7100000000000000000000000000000000000000000000000000000000600052601160045260246000fd5b7f4e487b7100000000000000000000000000000000000000000000000000000000600052602260045260246000fd5b7f4e487b7100000000000000000000000000000000000000000000000000000000600052604160045260246000fd5b6000601f19601f8301169050919050565b61151281611381565b811461151d57600080fd5b50565b61152981611393565b811461153457600080fd5b50565b6115408161139f565b811461154b57600080fd5b50565b611557816113c9565b811461156257600080fd5b5056fea2646970667358221220bdc80103b54cac3e3beafbf0a88e8f88c2b532cbe57b7f916953c65ec312c26864736f6c63430008000033",
  "immutableReferences": {},
  "source": "pragma solidity ^0.8.0; \n\nimport '@openzeppelin/contracts/token/ERC20/IERC20.sol';\n\ncontract HTLC {\n\n  mapping(address => htlc_internals)public m_HTLCs;\n\n  struct htlc_internals{\n    uint  startTime;\n    uint  lockTime;\n    string  secret; //abracadabra\n    bytes32  hash_of_secret;\n    address  receiver;\n    uint  amount; \n    IERC20  token;\n  }\n  \n  function create_htlc(address _receiver, address _token, uint _amount, bytes32 _hash) external { \n    require(m_HTLCs[msg.sender].startTime + m_HTLCs[msg.sender].lockTime < block.timestamp, 'A HTLC is already in place. Wait for this to end.');\n    htlc_internals memory new_htlc = htlc_internals(0, 10000 seconds, \"\", _hash, _receiver, _amount, IERC20(_token));\n    m_HTLCs[msg.sender] = new_htlc;\n  } \n\n  function fund() external {\n    m_HTLCs[msg.sender].startTime = block.timestamp;\n    m_HTLCs[msg.sender].token.transferFrom(msg.sender, address(this),  m_HTLCs[msg.sender].amount);\n  }\n\n  function withdraw(address _owner, string memory _secret) external { \n    // Secret is correct\n    require(keccak256(abi.encodePacked(_secret)) ==  m_HTLCs[_owner].hash_of_secret, 'wrong secret');\n    // msg.sender is the Receiver\n    require(msg.sender == m_HTLCs[_owner].receiver);\n    // Reveal the secret\n    m_HTLCs[_owner].secret = _secret; \n    // Send the token\n    m_HTLCs[_owner].token.transfer( m_HTLCs[_owner].receiver, m_HTLCs[_owner].amount); \n  } \n  \n  function getHash(address _sender) external view returns (bytes32){\n      return(m_HTLCs[_sender].hash_of_secret);\n  }\n  \n  function getSecret()external view returns (string memory){\n      return(m_HTLCs[msg.sender].secret);\n  }\n\n  function refund() external { \n    require(block.timestamp > m_HTLCs[msg.sender].startTime + m_HTLCs[msg.sender].lockTime, 'too early');\n    m_HTLCs[msg.sender].token.transfer(msg.sender, m_HTLCs[msg.sender].amount); \n  } \n\n  function resetTime() external{\n    m_HTLCs[msg.sender].startTime = 0;\n    m_HTLCs[msg.sender].lockTime = 0;\n\n  }\n\n  \n}",
  "sourcePath": "/home/mertmalaz/Desktop/Codes/marketplace/src/contracts/HTLC.sol",
  "compiler": {
    "name": "solc",
    "version": "0.8.0+commit.c7dfd78e.Emscripten.clang"
  },
  "schemaVersion": "3.4.0",
  "updatedAt": "2021-05-03T06:33:25.336Z",
  "devdoc": {
    "kind": "dev",
    "methods": {},
    "version": 1
  },
  "userdoc": {
    "kind": "user",
    "methods": {},
    "version": 1
  }
}